:020000040000fa
:10000000f07f00201d2a0000831b00009b200000c1
:1000100000000000000000000000000000000000e0
:10002000000000000000000000000000632300004a
:10003000000000000000000063230000a52f000066
:100040006323000063230000632300006323000098
:100050006323000063230000632300006323000088
:100060006323000063230000632300006323000078
:100070006323000063230000632300006323000068
:100080006323000063230000632300006323000058
:10009000c92d000063230000f92d00006323000038
:1000a0006323000063230000632300006323000038
:0c00b000632300006323000063230000b2
:020000040000fa
:1000bc00f8b5c046f8bc08bc9e467047fd29000048
:1000cc00f8b5c046f8bc08bc9e467047d529000060
:020000040000fa
:0800dc002415000001000000e2
:020000040000fa
:1000e400f0b5de4657464e464546e0b585b000209d
:1000f40002f0d0fb03f058f802f096fae24ce34920
:1001040057224c31200003f075f800220021200012
:1001140002f0eafa9621200002f0a2fcfa2002f092
:1001240051ff8224e4058023db01a361fa2002f05d
:1001340049ff80231b02a361fa2002f043ff9823a6
:100144002022e2500021232002f00afac82002f003
:100154004aff0021ce4803f0abf80021cd4803f05c
:10016400adf802f073ff02f07fff03f05df8ca4bb5
:100174009846ca4fca4b04330393ca4b1c330293a9
:1001840046e0002e00d182e00024c74a4c32535d81
:10019400e418a4b20135ebb29e42f8d8c34a1368fe
:1001a40001331360c04b99466c234a46d55c691ee3
:1001b400c9b248460c3002f027ff2b004b44db7acf
:1001c400834266d04b4614221a7302f091ffae4c60
:1001d400b74964225431200003f00cf800220021b6
:1001e400200002f081fa9621200002f039fcab4a8b
:1001f4001368013313600021002002f0b1f90120db
:1002040002f0e0fe0021232002f0aaf902f0dffb55
:100214008222d205a023d2588025ed01154000d0ba
:1002240056e19d4b01221a7002f0feffa14b1860ab
:100234009d4c2000083002f061f9627a702313406b
:10024400702bd8d1984bdb7a402bd4d102f0f2f842
:100254000100954c6c23e05420000c3001f05aff4f
:1002640002f01af901006e26a05520004c3001f06e
:1002740013ff0021002002f073f9a65d052e00d8bb
:100284007fe7894a6e230521d15405267ce70024a3
:1002940084e7854b1b7b642b97d1874b824d6a7b0c
:1002a4001a70aa7b5a70854a136801331360ff23be
:1002b4002c22ab540132ab540132ab540132ab5457
:1002c4000132ab540132ab54cd3bcd32ea542e3320
:1002d400cb3aab540132ab5428002c30092101f045
:1002e40093ff4c230022ea5428004c30012101f0f2
:1002f400c5ff4021312002f033f98223db059b4600
:10030400a0239a468025ed01642002f06cfe5b4632
:1003140052469b582b42f7d16348083002f0eef85e
:100324000021002002f01cf94021322002f018f9cb
:100334008223db059b46a0239a468025ed01642099
:1003440002f051fe5b4652469b582b42f7d1564b66
:1003540099461800083002f0d1f802f06bf8010059
:100364006c234a46d05448460c3001f0d3fe02f0c8
:1003740093f801006e234a46d05448464c3001f0ad
:100384008bfe4b461b7b602b1ad0142b4dd0192ba4
:1003940062d002f0adfe3c4c49495f22743120002a
:1003a40002f028ff00220021200002f09df996218e
:1003b400200002f055fb394a1368013313601ae731
:1003c400404b3c4a12689a4202d93a4b3d4a1a6061
:1003d400384b1868642101f055fd814602f088fe0f
:1003e4003100200001f0ccfb0500ff234a461a40ef
:1003f4009146354e244c2c4b9b7b01932e4b186815
:100404000a2101f0bdfb00902b004a463100243143
:10041400200002f0a9fe00220021200002f064f96d
:100424009621200002f01cfbe5e602f061fe164c6a
:10043400264966222431200002f0dcfe002200213d
:10044400200002f051f99621200002f009fb134a22
:10045400136801331360cee602f04afe0a4c1849d1
:1004640067220c31200002f0c5fe0022002120008a
:1004740002f03af99621200002f0f2fa074a1368d2
:1004840001331360b7e6c046000000208006000078
:100494001d3200009d1f0000710200205802002040
:1004a400000a00008009000098000020600200207b
:1004b4008008000054020020400200205c0200205a
:1004c400000800003c8601000007000080070000cf
:1004d4001c2001f01dfd00282ed1272001f018fd5d
:1004e400002851d1262001f013fd002800d18de60b
:1004f4000123424613708223db058022d2019a61d4
:1005040052009a6194222021995002f0f1fd3b6837
:10051400354a1268354c3649096800910399200020
:1005240002f022fe00220021200002f0ddf89621d4
:10053400200002f095fa51e02e4b01221a7082231a
:10054400db0592035a6152009a6198222021995046
:1005540002f0cefd254c284963223831200002f0f8
:1005640049fe00220021200002f0bef8962120005e
:1005740002f076fa1c2001f0cbfc002800d145e6fd
:10058400642002f01ffdf5e71a4b01221a70822342
:10059400db0592039a6152005a61982220219950f6
:1005a40002f0a6fd114c66220299200002f022fe00
:1005b40000220021200002f097f89621200002f08a
:1005c4004ffa02e0642002f0fdfc272001f0a0fcb9
:1005d4000028f7d11ae6642002f0f4fc262001f08a
:1005e40097fc0028f7d111e65c02002000000020ef
:0c05f400600200207102002000090000dd
:020000040000fa
:10060000415441383531302d454b312044656d6fb3
:10061000204b6974200d0a28632932303232204d74
:100620006963726f636869702056342e300d0a77e3
:10063000616974696e6720666f7220524620736923
:10064000676e616c200d0a2e2e2e2e2e202020206b
:10065000202020202020202020202020202020209a
:10066000200d0a00415441383531302d454b3120a1
:1006700044656d6f204b6974200d0a286329323060
:100680003232204d6963726f636869702056342e70
:10069000300d0a77616974696e6720666f72205247
:1006a00046207369676e616c200d0a20202020208f
:1006b000202020202020202020202020202020203a
:1006c000202020202020200d0a0000000d41544150
:1006d000383531302d454b312044656d6f204b69e5
:1006e00074200d0a28632932303232204d6963723a
:1006f0006f636869702056342e300d0a7761697413
:10070000696e6720666f72205246207369676e615a
:100710006c200d0a2e2e2e2e2e2020202020202070
:100720000d0a00000d202064743d253364732020e1
:10073000202020727373693d2533642020202020ff
:100740000d0a2020202020202020202020202020d2
:100750002020202020202020202020202020202099
:1007600020200d0a20202020202020202020543d61
:1007700025336427432020202020202020202020f3
:10078000200d0a20202020202020202020525353fa
:10079000493d2533642020202020202020200d0ae0
:1007a00000000000212121212121212121212121bd
:1007b0002121212121212121210d0a2053656e7340
:1007c0006f72206572726f723a20202020202020e4
:1007d000202020202020200d0a496e76616c69645b
:1007e0002073656e736f7220646174612120202014
:1007f0000d0a212121212121212121212121212114
:10080000212121212121210d0a0000002121212166
:1008100021212121212121212121212121212121c8
:10082000210d0a2053656e736f72206572726f72ac
:100830003a20202020202020202020202020200db1
:100840000a204c6f77206261747465727920766f2c
:100850006c74616765212020200d0a21212121214e
:100860002121212121212121212121212121212178
:100870000d0a00003a3a3a3a3a3a3a3a3a3a3a3aa9
:100880003a3a3a3a3a3a3a3a3a0d0a2052462074fb
:10089000656c656772616d206572726f723a2020b7
:1008a000200d0a2057726f6e672041434b207465fc
:1008b0006c656772616d2120200d0a3a3a3a3a3a26
:1008c0003a3a3a3a3a3a3a3a3a3a3a3a3a3a3a3a88
:1008d0000d0a00003a3a3a3a3a3a3a3a3a3a3a3a49
:1008e0003a3a3a3a3a3a3a3a3a0d0a2052462063ac
:1008f00068616e6e656c206572726f723a2020209e
:1009000020200d0a2057726f6e672041434b2074e0
:10091000656c656772616d2120202020200d0a3ae8
:100920003a3a3a3a3a3a3a3a3a3a3a3a3a3a3a3a27
:100930003a3a3a3a200d0a000d52462d4368616e4c
:100940006e656c203433332e39324d487a200d0acf
:1009500044617461205261746520386b4269742f60
:1009600073202020202020200d0a46534b20646550
:1009700076696174696f6e202b2f2d386b487a2051
:100980000d0a4d616e6368657374657220436f6410
:10099000696e6720202020200d0a00000d434f4d76
:1009a00020506f72742053657474696e67733a20b7
:1009b000202020200d0a6261756472617465203305
:1009c000382e34206b42617564202020200d0a38b7
:1009d0002064617461202b20312073746f70206259
:1009e000697420202020200d0a6e6f2070617269ca
:1009f00074792c206e6f2068616e6473682e200df0
:100a00000a0000000d526563656976657220737493
:100a100061746973746963733a20200d0a76616c9e
:100a20006964232025313064202020200d0a65725e
:100a3000726f72232025313064202020200d0a742b
:100a40006f74616c232025313064202020200d0a32
:040a50000000c0469c
:020000040000fa
:100a54000023f0b506001500afb005910193059988
:100a64000b78002b00d10fe101235b420a930eabfc
:100a740000240c93802309940b940d930b5d002b9d
:100a840001d0252b2ad1002c06d02200300002f000
:100a940062fa059b1b190593059b1a78252a00d039
:100aa400e7e0013302930593022310219c460827b3
:100ab400059803782b2b1bd025d8202b1bd0232b58
:100ac4001dd02a2b2ad002f093f80b90059b1a789c
:100ad400303a092a33d801330593f7e70134cde7d7
:100ae4000122099b80180393134309930590dfe7c0
:100af4000423099a0ee0099b03933b430be0099bf3
:100b040003930b4307e02d2bead0302bd9d1624657
:100b1400099b0393134309930130e7e72b680130e2
:100b24001a1d1b6805902a600b93002b07da099a9b
:100b34005b420392012203990b934a400992099b59
:100b4400da0702d5022293430993059b1a782e2ac9
:100b54000ed10022581c0a9205905a782a2a28d1cc
:100b6400023305932b681a1d1b682a6003930a93aa
:100b740005a802f00df9059b0700187802f06cfb3c
:100b8400692800d183e035dc632800d1d6e01bdc82
:100b9400252800d1dfe0612859d0252306aa137047
:100ba400029b0593002309930b93013b0a930233a1
:100bb400b2e002f01df80a90059b1a78303a092a2f
:100bc400d6d801330593f7e7642860d06728e4dcbe
:100bd4002a00390006a802f0a9f9002800d1a9e0ea
:100be400059b09a95a1c05921b7806aa300002f03d
:100bf4007bfb3de0702800d17de016dc6e2800d13f
:100c040091e06f28c9d12b000022390006a801f019
:100c14005bf8002800d18de0059b06aa013309a9e1
:100c24003000059301f064fb22e0752840d0782859
:100c34004fd07328b1d1802f00d07be0059b2a6868
:100c440001330593131d2b601268002364e02a000e
:100c5400390006a802f06af9002800d16ae0059b71
:100c640009a95a1c05921b7806aa300002f03cfb25
:100c74002418019b1c19a34200dc74e04f223b4b57
:100c84001a6001235b42019301982fb0f0bd2b0041
:100c94000122390006a801f017f800284ad0059b64
:100ca40006aa013309a93000059300f00fffdfe71e
:100cb4002b000022390006a801f006f8002839d0dc
:100cc400059b06aa013309a93000059301f038fdfc
:100cd400cee72b000022390006a800f0f5ff00281b
:100ce40028d0059b5a1c05921b7806aa09a9300036
:100cf40000f0ecfbbce72b000022f02106a800f07a
:100d0400e3ff002816d0059b079a01330593069b41
:100d1400134306d1164a163209a9300001f0e2fd48
:100d2400a6e77823e1e7019b39001a1906a82b00ee
:100d340001f04cfb059b013305939ae7802ff9d111
:100d4400059b013305932b681a1d1b682a6006aaac
:100d540013700123e0e7802fecd1059b06aa013331
:100d640005931070f5e7019479e6c0466c02002003
:040d7400c03000008b
:020000040000fa
:100d78000607207d00000000000000202020202021
:100d88000020505050000000005050f850f85050cb
:100d98002078a07028f020c0c810204098186090d3
:100da800a040a8906860204000000000102040404b
:100db80040201040201010102040005020f82050f3
:100dc80000002020f82020000000000060204000e3
:100dd8000000f8000000000000000060600008103b
:100de80020408000708898a8c88870206020202043
:100df8002070708808102040f8f8102010088870bb
:100e080010305090f81010f880f0080888703040c2
:100e180080f0888870f808102040404070888870fa
:100e2800888870708888780810600060600060604a
:100e3800000060600060204008102040201008007a
:100e480000f800f8000080402010204080708808da
:100e58001020002070880868a8a87070888888f812
:100e68008888f08888f08888f0708880808088700a
:100e7800e09088888890e0f88080f08080f8f8809a
:100e880080e080808070888080988870888888f862
:100e9800888888702020202020703810101010902a
:100ea800608890a0c0a09088808080808080f8882a
:100eb800d8a8888888888888c8a8988888708888e2
:100ec80088888870f08888f080808070888888a8f2
:100ed8009068f08888f0a09088788080700808f082
:100ee800f820202020202088888888888870888892
:100ef8008888885020888888a8a8d888888850201a
:100f080050888888885020202020f80810204080a9
:100f1800f83820202020203800804020100800e0e9
:100f28002020202020e02050880000000000000041
:100f3800000000f840201000000000000070087851
:100f480088788080b0c88888f000007080808870b9
:100f58000808689888887800007088f88070304899
:100f680040e0404040000078887808308080b0c871
:100f78008888882000602020207010003010109091
:100f88006040404850605048602020202020700079
:100f980000d0a8a888880000b0c888888800007099
:100fa800888888700000f088f08080000068987851
:100fb80008080000b0c8808080000070807008f0c9
:100fc8004040e04040483000008888889868000029
:100fd800888888502000008888a8a8500000885079
:100fe800205088000088887808700000f810204099
:100ff800f8102020402020102020202020202040f1
:08100800202010202040c0460a
:020000040000fa
:10101000f0b5de4657464e464546e0b583b08046bd
:101020009246002939d0002837d0674a52680720f5
:101030001040019045d15246002a00d1a5e06248f7
:10104000007e420705d560480425826a027e2a4256
:10105000fbd15d48448b04252c434483047e8025ca
:101060002c430476002291468b4201d95a1a9146ac
:10107000019a002a04d05b0849084a465208914662
:10108000514d01242a7e2242fcd0002000274e4ce4
:101090000426012500908b462fe00020002b69d00c
:1010a0005246002a6dd0484a5268073010400190dd
:1010b00000d17de0002900d080e0da0705d50020ce
:1010c00058e0ca075fd4002bf7d14046441ea04128
:1010d00040420140afe77a004046125ad205d20d95
:1010e000a262013712e0394aa26238e000985946fc
:1010f000227e2a42fcd000908b465f4527d0019a81
:10110000002ae8d14246d25da2620137002bedd021
:1011100000985946227e3242fcd000908b46a26a4b
:1011200001009842e9d20198002804d15046425467
:1011300001310091e1e7009948008446d205d20dc3
:10114000504661460a52009901310091d5e74a465e
:10115000002a09d0019a002ac5d1ff32a2620122d9
:1011600052429446e144d1e7174902320b7e1342c2
:10117000fcd0012003b03cbc90469946a246ab4649
:10118000f0bd0020f6e70020f4e70f4b187e0023a7
:10119000420700d557e70c4b588b04242043588353
:1011a000187e8024204318760023002291465fe7b2
:1011b0004246002a00d03ee7019940e7ca0700d422
:1011c0007be70020d6e7c04600080042ff01000090
:020000040000fa
:1011d000f0b5de4657464e464546e0b583b08046fc
:1011e0009246002939d0002837d0674a5268072034
:1011f0001040019045d15246002a00d1a5e0624836
:10120000007e420705d560480425826a027e2a4294
:10121000fbd15d48448b04252c434483047e802508
:101220002c430476002291468b4201d95a1a9146ea
:10123000019a002a04d05b0849084a4652089146a0
:10124000514d01242a7e2242fcd0002000274e4c22
:101250000426012500908b462fe00020002b69d04a
:101260005246002a6dd0484a52680730104001901b
:1012700000d17de0002900d080e0da0705d500200c
:1012800058e0ca075fd4002bf7d14046441ea04166
:1012900040420140afe77a004046125ad205d20dd3
:1012a000a262013712e0394aa26238e0009859463a
:1012b000227e2a42fcd000908b465f4527d0019abf
:1012c000002ae8d14246d25da2620137002bedd060
:1012d00000985946227e3242fcd000908b46a26a8a
:1012e00001009842e9d20198002804d150464254a6
:1012f00001310091e1e7009948008446d205d20d02
:10130000504661460a52009901310091d5e74a469c
:10131000002a09d0019a002ac5d1ff32a262012217
:1013200052429446e144d1e7174902320b7e134200
:10133000fcd0012003b03cbc90469946a246ab4687
:10134000f0bd0020f6e70020f4e70f4b187e0023e5
:10135000420700d557e70c4b588b04242043588391
:10136000187e8024204318760023002291465fe7f0
:101370004246002a00d03ee7019940e7ca0700d460
:101380007be70020d6e7c04600180042ff010000be
:020000040000fa
:10139000080200201c0000000000000024020020c1
:1013a0000c000000000000003002002008000000d7
:1013b00000000000380200200800000000000000cb
:1013c000480200200400000000000000c8010020c6
:1013d0002000000000000000e801002020000000c4
:1013e0000000000098010020300000000000000014
:1013f000580100204000000000000000960000207e
:101400000200000001000000010000004c0200206a
:101410000400000000000000500200200400000052
:101420000000000070020020010000000000000029
:1014300040020020080000000000000054020020cc
:10144000040000000000000058020020040000001a
:10145000000000005c02002004000000000000000a
:1014600098000020700000000000000071020020c1
:1014700001000000000000000000002096000000b5
:1014800000000000600200200400000000000000d6
:101490006402002004000000000000000801002099
:1014a000500000000000000068020020040000005e
:1014b000000000006c02002004000000000000009a
:1014c000000000000000000022222222222222220c
:020000040000fa
:1014d000f0b58fb00d934b680c9008938b680d009e
:1014e0000993cb6816000393089b0f68002b60db01
:1014f00002239f4310233b400a933368059373688c
:101500000693099b04930a9b002b06d0059b069a21
:10151000134302d0099b023b049308233b400b93e7
:101520005a1e9341049ad31a04932b69039a5c1ea2
:1015300000231355089b0793012c10dd059b069a89
:10154000134339d1079b002b36dc089a049b9b1a66
:10155000079a9b18002b02dd02231f422cd10a9b05
:10156000002b0bd00cce134308d0039b0d9a1b19f4
:10157000013b1a703023039a023c13550b9b002b3e
:1015800003d02023039a013c13552b6900975a1e60
:10159000039b121b19190c98099b00f0fbfd0c9b77
:1015a0005b68db0503d56b68984200da18000fb062
:1015b000f0bd012308939de70f22059b013c1340da
:1015c00018005730092b01dc303318000d9b413bcc
:1015d000192b06d820230343613b192b01d801f0b6
:1015e00044fe039b1855079b013b0793069b1a0774
:1015f000059b1b091a43069b05921b0906939be753
:020000040000fa
:10160000f0b5060085b00f0015001c008b4265d8b0
:1016100001d1824262d82100280001f09bfd3900ef
:101620000090300001f096fd009b21001b1a1a006b
:101630002800039301f082fd00900191019bbb42c1
:1016400046d802d1009bb34242d8009b019c039a2a
:1016500001200021f61aa74101f070fd039b002b29
:101660002fd0019b009adb0754081c43019b5d08a7
:10167000039b9c46bd422ed801d1b4422bd83200e8
:101680003b00121bab41012692185b410027b618a4
:101690005f4101235b429c446346002bead18019e1
:1016a0007941039a04000d003000390001f03afd41
:1016b000039a06000f0001f041fd241a8d4120001d
:1016c00029000a9b002b01d01e605f6005b0f0bdb1
:1016d00000200021c2e7b6197f41dae7002000218f
:0216e000efe732
:020000040000fa
:0216e20070474f
:020000040000fa
:1016e400f8b5344d6c6aaa69eb690120002112181f
:1016f4004b41aa61eb61002c4dd02022ab5c01333d
:10170400ab54a368002b05d0a368013ba3606c6aab
:10171400002c24d0a368002b21d101250027254ebd
:101724000de0e06901f044fae368002b01d0206980
:101734009847746a002c12d0a368002b0fd125752a
:101744006575a378002b02d1e368002be9d1200052
:1017540001f022f8a378002be6d16770e4e7164b7a
:101764005b7d002b05d0144b00225a759b78012b0e
:1017740012d0114a3523d35c002b07d01300352235
:1017840000219954133a9b5c012b0bd00949202268
:101794008b5c013b8b54f8bd07484368836000f0c1
:1017a4000df8e6e70448436a8362203000f006f847
:0c17b400ece7c04698010020580100201e
:020000040000fa
:1017c000f0b5de4657464e464546e0b585b0814603
:1017d00000284bd02e4b596a83689a4600290cd0ba
:1017e0008b6852460392002290469a4545d30022c8
:1017f00000238b460092019305e052468260244b01
:10180000586233e0e3465e46b66834000025009a2d
:10181000019b12196b41009201935e46b669b44672
:10182000002e12d06646b66800210f00009a019b78
:10183000b6185f41474525d8e4d1039b9e42e1d9c4
:1018400060465946009a019b01e0300059464c46db
:10185000a0618c6151468a1a4b469a609b69002ba5
:1018600004d04a4691689a68521a9a6005b03cbc06
:1018700090469946a246ab46f0bd054b5862816141
:101880000022e7e760465946009a019bdfe7c04621
:04189000980100209b
:020000040000fa
:101894002b4b5a6852031b68db0c13439b029b0ab5
:1018a400284a936300235375110004228b691a425a
:1018b400fcd124491022cb681a42fcd0224b0022ce
:1018c4009a611a61214b224a1a62190004224b6858
:1018d4001a42fcd11d4ad0234021d150100090312e
:1018e400402243581a42fcd0184adc234021d150ec
:1018f40010009c31402243581a42fcd0134ae4237e
:101904004021d1501000a431402243581a42fcd047
:101914000e4af8234021d1501000b83140224358d8
:101924001a42fcd0094afc234021d1501000bc319a
:10193400402243581a42fcd0064b074ada617047ea
:10194400206080000010004000140040001c004093
:0c195400060101000008004064f00000e3
:020000040000fa
:1019600030b58223db052a4a1a602a4a1a6100220e
:1019700042215a540c315a5401315a544e39502094
:10198000195401301a5401301954013019540130de
:101990001a5401301a5406301a5455385c2418551c
:1019a0002b3c1a5506341a55013402251d550134b5
:1019b00020351d5501341a5503341a5501341a5572
:1019c00042340e351d51413460355c513035595526
:1019d00019550134195502341a5501341a55013478
:1019e0001855013418550334195501341955cd31a2
:1019f00058549b39aa3019540130c83c1c5401304a
:101a00001a5401301a540230195484315a5430bdda
:081a100004c032080000301888
:020000040000fa
:101a1800f0b583b006000d0001921f0008ab1c78da
:101a280001f0fef9002843d0234b1b785bb2022b50
:101a380006d00124644201f0f7fa200003b0f0bd9b
:101a4800002d2fd0b54230d31c4b1b78002b24d04f
:101a58001a4a2023d35c002b02d001246442eae70f
:101a680001211300203301221a7000225a701a75be
:101a78005a759c705d60019ada601f61ad1b9d60ac
:101a88000f4a128814040c43dc61013293b20d4ae8
:101a9800934205d00a4a1380cde70021074be2e7bd
:101aa8000123f7e701246442c5e701246442c2e741
:101ab80001246442c1e7c046980100205801002073
:081ac80096000020ffff000062
:020000040000fa
:101ad000f0b54b6889b005930b6807009c460793e7
:101ae000cb680c008e68049310685168cd0f44d009
:101af0000b000200002150429941059b002b08db9e
:101b00000222634693430793002d02d1079b5a0795
:101b10002ad5731e07aa02920a22009301920b0093
:101b20000200200000f07afa002d02d1079b5a072c
:101b30001ed501382d23002d00d1023b049a1354e9
:101b400023695a1e049b121a1918079b3800009328
:101b5000330000f01ffb7b68db0503d56368984208
:101b600000da180009b0f0bd1b07db0ff31ad1e74c
:101b70001b07e5d501382023e0e7059b002bbfdae2
:021b8000c4e7b8
:020000040000fa
:021b8200fee77c
:020000040000fa
:101b8400002941d010b4041c4c40a4460123002277
:101b9400002900d54942002800d5404288422cd370
:101ba40001242407a14204d2814202d209011b016b
:101bb400f8e7e400a14204d2814202d249005b006a
:101bc400f8e7884201d3401a1a434c08a04202d3d2
:101bd400001b5c0822438c08a04202d3001b9c0813
:101be4002243cc08a04202d3001bdc082243002875
:101bf40003d01b0901d00909e3e7101c6446002c3b
:101c040000d5404210bc704701b5002001f06efbc6
:101c140002bdc0460029f7d003b5fff7b3ff0ebce1
:081c24004243891a1847c0462b
:020000040000fa
:101c2c0070b58224e40580252d0565610a2001f03c
:101c3c00d6f9a5610a2001f0d2f9a82001f0cdfa5d
:101c4c001f2001f0cafad32001f0c7fa002001f0de
:101c5c00c4fa402001f0c1faa12001f0befac8205c
:101c6c0001f0bbfada2001f0b8fa022001f0b5fa63
:101c7c00812001f0b2fa8f2001f0affaa42001f01c
:101c8c00acfaa62001f0a9fad52001f0a6fa802022
:101c9c0001f0a3fa8d2001f0a0fa142001f09dfab6
:101cac00db2001f09afa402001f097fad92001f0dc
:101cbc0094faf12001f091faaf2001f08efa70bd88
:020000040000fa
:101ccc0030b5882933d015dc812941d003dc80293b
:101cdc003ed0002030bd822911d08429f9d11c6856
:101cec0002cc1c60002a1ed009b20160c9174160e9
:101cfc000120efe7a02923d00adc9029e9d10724a1
:101d0c0019680731a14330c9196004604560efe7d9
:101d1c00c02901d0f029dcd11a68111d1960136893
:101d2c000360002312e089b201604260e0e71c68a6
:101d3c0002cc1c60002a01d049b2d6e7c9b2f3e745
:101d4c001a68111d196013680360db174360cfe735
:101d5c0019680c1d1c600b680360002ae5d0f4e7c1
:020000040000fa
:101d6c00f0b5c6461f4a204b00b50021934203d262
:101d7c00197001339342fbd10b231c4a9c46083b40
:101d8c0098461368546819000026214311d0170097
:101d9c0091680c3700290fd11a19002c03d01e7032
:101dac0001339342fbd13a00136854681900214364
:101dbc00edd104bc9046f0bd6146c91a1d195118ed
:101dcc00002c05d05a1c505c187013009542f9d1a8
:101ddc00434623405a1e9341a4081c19a4003f19e2
:101dec003a00e1e700000020000000209013000002
:020000040000fa
:101dfc00f0b5d6464f464646c0b582b00f00d30864
:101e0c0000931c4b5a7892469e78861b5643b2b26e
:101e1c001b78cb18dbb299468024174bd31801934f
:101e2c005546984615e05208c11849b20133a942eb
:101e3c0006da19782142f6d03243d2b2f3e7002207
:101e4c003900009800f084ff0137ffb264084f4559
:101e5c000ad05346002bf2dd019b002280267642ed
:101e6c0001204146401ae4e702b01cbc904699465a
:0c1e7c00a246f0bd780d00007c0d0000b7
:020000040000fa
:101e8800002934d00123002210b488422cd3012425
:101e98002407a14204d2814202d209011b01f8e7ba
:101ea800e400a14204d2814202d249005b00f8e773
:101eb800884201d3401a1a434c08a04202d3001b9f
:101ec8005c0822438c08a04202d3001b9c082243d2
:101ed800cc08a04202d3001bdc082243002803d010
:101ee8001b0901d00909e3e7101c10bc704701b5b4
:101ef800002001f0f9f902bd0029f8d003b5fff779
:0c1f0800c1ff0ebc4243891a1847c046b6
:020000040000fa
:101f1400f0b5c64600b5050026281ad0272811d0ea
:101f240000241c2805d08227ff05a02398460126fb
:101f34001ce08223db051c6ae400e40f002cf2d0d1
:101f4400002026e08222d205a023d4582406e40fe0
:101f5400f4e78222d205a023d4586406e40fede707
:101f64004346fc58e4093440002c11d0022001f00f
:101f740029f8262d07d0272df2d01c2df4d13c6a48
:101f8400240f3440f0e74346fc58a4093440ebe7ff
:081f9400012004bc9046f0bde1
:020000040000fa
:101f9c0010b58222d205a023d3585b0411d5184b5f
:101fac001b78002b0dd1174b1b78002b0ad0012b63
:101fbc0014d0144b1b780133dbb2022b1bd0114a0b
:101fcc00137010bd104c64221049200001f00ef962
:101fdc0000220021200000f083fbeae70a4c0b49a9
:101fec0066226431200001f001f90022002120005a
:101ffc0000f076fbdde7034b00221a70e1e7c046e8
:10200c007102002070020020000000200006000079
:020000040000fa
:10201c00f0b5050085b019000c9b100001931a68ef
:10202c002b696c68013bef681d00002c00da012461
:10203c000026fe540a9e0123361b029602261640e9
:10204c000b9ad2170392002d04dc002b17d028001a
:10205c0005b0f0bd02000a4307d1002c05dc029a42
:10206c001219002af1dd002eefd00b9a039b00f021
:10207c00dbfd013d130030327a55013ce3e71023c0
:0e208c00019a12689a431300019a1360dfe76d
:020000040000fa
:02209a00fee75f
:020000040000fa
:10209c00f0b583b001900e008027bf02390082207a
:1020ac00c00501f01bf9192000f099ff122000f077
:1020bc0096ff134d05232b706e70721ca81c00210b
:1020cc0001f0b6f8f11c0f4c0b0022002800fef7b3
:1020dc0099ff232000f083ff39008220c00501f016
:1020ec00fbf8102000f07bff074b22781a70627807
:1020fc005a70e11c3200019801f078f803b0f0bd81
:0c210c00e8010020c8010020480200206b
:020000040000fa
:10211800f0b583b001900e008027bf0239008220fd
:10212800c00501f0ddf8192000f05bff122000f077
:1021380058ff134d06232b706e70721ca81c0021cb
:1021480001f078f8f11c0f4c0b0022002800fef774
:102158005bff232000f045ff39008220c00501f015
:10216800bdf8102000f03dff074b22781a70627806
:102178005a70e11c3200019801f03af803b0f0bd42
:0c218800e8010020c801002048020020ef
:020000040000fa
:10219400f0b51e00012389b014000e9a07001a40fe
:1021a4000291019220d1b4421eda351b03952a0014
:1021b400102d00d91022202104a801f03df80f2d84
:1021c4001bdc0f22039b04a913401a00380000f003
:1021d400c2fe019b002b04d122000299380000f0ba
:1021e400bafe300009b0f0bd22000299380000f0b8
:1021f400b2feb442d9db2600f3e7102204a938006a
:0822040000f0a9fe103ddae72d
:020000040000fa
:10220c00f0b583b001900c008026b6028225ed0556
:10221c003100280001f062f8192000f0e0fe1220d5
:10222c0000f0ddfe104f0b233b707c70b81c2200bd
:10223c00019900f0dbffa11c0c4c0b0022003800b4
:10224c00fef7e0fe232000f0cafe3100280001f06a
:10225c0043f8102000f0c3fe054b22781a70627808
:10226c005a7003b0f0bdc046e8010020c801002040
:04227c0048020020f4
:020000040000fa
:10228000f0b583b001900c008026b6028225ed05e2
:102290003100280001f028f8192000f0a6fe1220d5
:1022a00000f0a3fe104f0c233b707c70b81c220082
:1022b000019900f0a1ffa11c0c4c0b00220038007a
:1022c000fef7a6fe232000f090fe3100280001f06a
:1022d00009f8102000f089fe054b22781a70627808
:1022e0005a7003b0f0bdc046e8010020c8010020cc
:0422f0004802002080
:020000040000fa
:1022f400f0b50b680c008f68cd68496887b006009c
:102304000593002902db02218b43059305a9536839
:10231400126802910821009701912000fff77cfeca
:10232400059bdb0602d5302301382b54059b1b0784
:1023340002d5202301382b54236929185a1e059be2
:10234400121a009330003b00fff722ff7368db058d
:0e23540003d56368984200da180007b0f0bda8
:020000040000fa
:02236200fee794
:020000040000fa
:1023640010b5002925d0002826d1154c2823012298
:10237400e2540b686360fa229200e26004228a56f7
:10238400227200200021a061e1610022626220210a
:1023940062541b6800210b48984763685b68984740
:1023a40040220021084800f047ff02232370200048
:1023b40010bd01204042fbe701204042f8e7c0463f
:0c23c40098010020e516000058010020e0
:020000040000fa
:1023d00010b584291fd007dc812915d0822922d08d
:1023e000802911d0002010bd90291cd008dc88293c
:1023f000f8d119680c1d1c600b6803601a7010e09e
:10240000a02901d0c029edd119680c1d1c600b68f2
:1024100003601a6005e019680c1d1c600b680360fe
:102420001a800120dfe719680c1d1c600b6803602f
:082430001a60d2175a60f4e7ac
:020000040000fa
:1024380070b58026b6028225ed053100280000f02f
:102448004fff192000f0cdfd122000f0cafd0e4804
:10245800012303700023837043700c4c0333220064
:102468000321fef7d1fd232000f0bbfd3100280039
:1024780000f034ff102000f0b4fd054b22781a70ec
:1024880062785a70a07870bde8010020c801002069
:0424980048020020d6
:020000040000fa
:10249c0070b58026b6028225ed053100280000f0cb
:1024ac001dff192000f09bfd122000f098fd0e4836
:1024bc00032303700023837043700c4c03332200fe
:1024cc000321fef79ffd232000f089fd3100280039
:1024dc0000f002ff102000f082fd054b22781a70ec
:1024ec0062785a70a07870bde8010020c801002005
:0424fc004802002072
:020000040000fa
:10250000f8b507008026b6028225ed0531002800c7
:1025100000f0eafe192000f068fd122000f065fdd1
:102520000e48042303700022002141708270c270a3
:102530000b4c042322000431fef76afd232000f037
:1025400054fd3100280000f0cdfe102000f04dfdbc
:1025500004222100380000f04ffef8bde801002001
:04256000c80100208e
:020000040000fa
:10256400f8b507000c008026b6028225ed0531007f
:10257400280000f0b7fe192000f035fd122000f00d
:1025840032fd0d480d230370477084700b4c0a3bd9
:1025940022000321fef73afd232000f024fd310040
:1025a400280000f09dfe102000f01dfd044b227851
:1025b4001a7062785a70f8bde8010020c801002042
:0425c40048020020a9
:020000040000fa
:1025c80070b58026b6028225ed053100280000f09e
:1025d80087fe192000f005fd122000f002fd0e48cc
:1025e800122303700023837043700c4c03332200c2
:1025f8000321fef709fd232000f0f3fc3100280039
:1026080000f06cfe102000f0ecfc054b22781a70ec
:1026180062785a70a07870bde8010020c8010020d7
:042628004802002044
:020000040000fa
:10262c0070b5174b00221a605a601a725a729a725d
:10263c00da720023124805002c3504004c34c11802
:10264c000a7359190a7019190a700133202bf6d123
:10265c000b4c00236c22a3540132a3540132a3541b
:10266c0000f05afb20000830fff744fffff7a6ffed
:10267c000209d2b222600f230340636070bdc046d2
:04268c009800002092
:020000040000fa
:1026900000230e4a10b513600d4a13600d4a1360f3
:1026a0000d4a13600d4a13600d4a536213610133e2
:1026b000936000f0bcfc00f0bafc0a4c0a4b9c4250
:1026c00000d310bd08cc9847f8e7c0466802002048
:1026d0001401002010010020080100200c0100203e
:0c26e00018010020c8000000cc00000021
:020000040000fa
:1026ec00f0b583b00400019117000d00114e08e005
:1026fc0072780132bf18ffb2019d01342378002b90
:10270c0016d020780a28f3d00d28f6d03a002900ec
:10271c00fff76efb2378202b04d0064b1b78ed18ab
:10272c00edb2eae7034b1b78023bed18edb2e4e7a0
:08273c0003b0f0bd780d0000b0
:020000040000fa
:10274400f0b50b680c008f68cd68496887b0060047
:102754000593002902db02218b43059305a95368e5
:10276400126802910a21009701912000fff754fc9e
:10277400236929185a1e059b121a009330003b0046
:10278400fff706fd7368db0503d56368984200da3a
:06279400180007b0f0bdc3
:020000040000fa
:02279a00704786
:020000040000fa
:10279c0010b5134b5a6a002a19d0824205d18369ad
:1027ac00002b15d0002208e01a009369002b0ed0e4
:1027bc009842f9d18369002b05d08468996809196e
:1027cc009960002a06d0836993610023836110bd50
:1027dc001a00f6e7024b5a6a92695a62f5e7c0464c
:0427ec009801002030
:020000040000fa
:1027f00010b582b002000c1e1ed00123002802d1a9
:10280000180002b010bd0d4bd8680023002100f065
:102810008ff90b4a002300f00dfa0100002300930a
:1028200000220020fff7f8f820600123421ce7d0c7
:1028300000f0aaf80023e3e70123e1e79801002074
:0428400040420f0003
:020000040000fa
:1028440010b582b002000c1e1fd00123002802d153
:10285400180002b010bd0e4bd8680023002100f010
:1028640065f9fa229200002300f0e2f90100002346
:10287400009300220020fff7cdf820600123421cc2
:10288400e6d000f07ff80023e2e70123e0e7c0464a
:042894009801002087
:020000040000fa
:1028980010b5104b06225a60fff75ef8fef7f6fff8
:1028a80000f0e6fc00f0d4fafef717ff00f064fb36
:1028b80000f0e4fa00f016fa00f058f900f0f0f829
:1028c80005490020fff74afd044b186000f0cef9d7
:1028d80010bdc04600400041d43200004c02002028
:020000040000fa
:1028e800f0b50f0087b0039015001049072204a81f
:1028f8001c0000f07dfcbb687e6802933f68002dd9
:1029080000d104ad002c03d1280000f09bfc04008a
:10291800002e02dbb44200d934000097029b22004b
:1029280029000398fff732fc07b0f0bddc32000045
:020000040000fa
:1029380030b51500012289b0524201920432ff32ab
:102948000292002800d16846002403900491a14215
:1029580000d04c1e0594002906da4f220120074baf
:1029680040421a6009b030bd0022079002700690fc
:102978001a00290001a800f0c5fbf3e76c0200204b
:020000040000fa
:1029880070b5040000f04cfa00281cd0200000f0bc
:10299800a9f8041e15d043780025002b0dd18368b3
:1029a800002b01d1436883602000fef705ff002358
:1029b8002375637501336370002500f035fb28002b
:0a29c80070bd0125f9e70125f9e7cc
:020000040000fa
:0229d20070474c
:020000040000fa
:1029d40010b5064c2378002b07d1054b002b02d0f1
:1029e400044800e000bf0123237010bd080200204a
:1029f4000000000000000000044b10b5002b03d0c1
:102a04000349044800e000bf10bdc04600000000b8
:082a14000c020020000000008c
:020000040000fa
:102a1c0010b50a4b98470a4b9847fff7a1f9094b99
:102a2c00ff229343084a9360084b9847084b9847fa
:102a3c00084b9847fdf750fbfee7c0469b2700006c
:102a4c009b2700000000000000ed00e09126000034
:082a5c009b2700009b270000ee
:020000040000fa
:102a640070b5002818d0002918d000250c4a01247c
:102a7400072605e06b00c35a13850135a94209d026
:102a8400137e2342fcd053683340012bf2d0435dc4
:102a94001385f2e7012070bd0020fce70120fae76e
:042aa40000140042d8
:020000040000fa
:102aa8000d4b01221a6019000b691a42fcd10a4b1e
:102ab800e322d2001a6003221a73084ada61332229
:102ac8009a72074a0021116001225a721a0013698a
:102ad800002bfcd17047c046003800423e49000038
:042ae8003802002090
:020000040000fa
:102aec00431e033315d80d4b184215d103041b0c90
:102afc0059010b4a5218d169002281420ad15a015c
:102b0c000749515c0022002904d05b01044ad21809
:102b1c0000e00022100070470022fbe7feff0000df
:042b2c00580100202c
:020000040000fa
:102b3000f7b597b201933b00140c86b2050c7343b2
:102b40006f4366436543f6191c0ca4199c46a742c3
:102b500002d980235b02ed186346260c7519240404
:102b60009eb2019ba4194343200051435b1959189d
:042b700003b0f0bd01
:020000040000fa
:102b74000c4b01221a6019000b691a42fcd1094b53
:102b840018221a60153a1a73074ada6133229a72c4
:102b9400064a0021116001225a721a001369002b9f
:102ba400fcd170470030004200530700300200207f
:020000040000fa
:102bb40010b5040000f036f9002817d02000fff704
:102bc40093ff041e10d04378002b08d100232375f3
:102bd40063752370002400f029fa200010bdfff76c
:102be400dbfd00236370f1e70124f4e70124f4e73b
:020000040000fa
:102bf400030010b51a78202a0dd0110009390429d0
:102c040009d900212b2a02d02d2a01d10131013307
:102c140000200a2404e00133ece760430133801a06
:102c24001a78303a092af8d9002900d1404210bd57
:020000040000fa
:102c3400002b11d1002a0fd1002900d1002802d085
:102c44000021c943081c07b4024802a1401802909d
:102c540003bdc0469906000003b4684601b5029856
:102c6400fef7ccfc019b9e4602b00cbc7047c046ec
:020000040000fa
:102c7400bff35f8f62b60b4bc52189005a58ff2002
:102c840082433f3802435a50802252031a605a58f2
:102c940005481040c022120402435a508022d20335
:0c2ca4001a60704700e100e0ffff00ff35
:020000040000fa
:102cb0001c2101231b04984201d3000c10391b0a6c
:102cc000984201d3000a08391b09984201d3000930
:102cd000043902a2105c40187047c0460403020287
:0c2ce000010101010000000000000000e4
:020000040000fa
:102cec000a4b0b4a1a600b4a9a81802252025a6094
:102cfc001a00d369002bfcd1044a136802210b4340
:102d0c001360d369002bfcd17047c04600140042fd
:082d1c0004010140b9fcffffb6
:020000040000fa
:102d240070b580218224e4054903200000f0d8fa1c
:102d34008025ad032900200000f0d4fafa20800099
:102d440000f051f92900200000f0cafa014800f00f
:082d54004af970bd881300006c
:020000040000fa
:102d5c0070b50e0014000f252840b023184300f066
:102d6c003cfa7006400f1023184300f036fa280086
:102d7c00304000f032fa10218222d2059823d15033
:082d8c00200000f089f970bd80
:020000040000fa
:102d9400f0b5050000200a4c4200165d002e02d159
:102da400a2185078f0bd296801300f78c0b2b7423c
:102db40003d1a2180131507829600a28ecd9f1e72f
:042dc400c03000001b
:020000040000fa
:102dc80010b5094b5b7a002b0dd0074b987ac0b22f
:102dd80033229a72002806d0044b1b68002b02d0bd
:102de800024a5168984710bd003000423002002066
:020000040000fa
:102df80010b5094b5b7a002b0dd0074b987ac0b2ff
:102e080033229a72002806d0044b1b68002b02d08c
:102e1800024a5168984710bd003800423802002025
:020000040000fa
:102e280010b50a4a2023d35c0120002b04d1283393
:102e3800d35c0020012b00d010bd130028220021f4
:102e480099545b689b6998470120f5e79801002031
:020000040000fa
:102e5800084b802292025a601a00d369002bfcd1d9
:102e6800044b2f221a73044a1a601a00d369002be4
:0c2e7800fcd17047000800420e00010071
:020000040000fa
:102e8400084b802292025a601a00d369002bfcd1ad
:102e9400044b17221a73044a1a601a00d369002bd0
:0c2ea400fcd17047001800420e00010035
:020000040000fa
:102eb00010b500f08ff9074b07221a601b68db037f
:102ec00005d5054a51688023db040b43536000f0ad
:0c2ed00058f910bd10e000e000ed00e03b
:020000040000fa
:102edc0070b50500fff7a2ff041e0ad02800fff70b
:102eec00fffd002807d0047de4b20023037500f039
:0a2efc0099f8200070bd0024f9e7ea
:020000040000fa
:102f060070b5402000f06cf9002500263400320030
:102f160021002800fff71fff0134e4b2802cf6d110
:0a2f26000135edb2042df1d170bdac
:020000040000fa
:102f3000002380290fdb812901dd83290bd10721a3
:102f4000136807338b431900083111601a685b68f6
:0a2f5000026043600123180070477f
:020000040000fa
:102f5a0070b505690400954200d915002a00606918
:102f6a0000f045f9226963695b19551b0022256146
:062f7a0063611a7070bdd6
:020000040000fa
:102f8000054a0023136093600449516006211160d3
:102f9000034a93601360704710e000e07fbb0000bd
:042fa00024020020e7
:020000040000fa
:102fa40010b5064b1b68064b9a6801329a601b6881
:102fb400002b02d0024a5068984710bd10e000e090
:042fc40024020020c3
:020000040000fa
:102fc80000b583b001235b42019301a9fff736fcea
:102fd800002804d1019800f07df80028fad003b049
:022fe80000bd2a
:020000040000fa
:102fea0000b583b001235b42019301a9fff7fbfb04
:102ffa00002804d1019800f06cf80028fad003b038
:02300a0000bd07
:020000040000fa
:10300c0010b500290bd000220023845c1b19dbb205
:10301c000132d4b2a142f8d85842c0b210bd0b0054
:02302c00fae7c1
:020000040000fa
:02302e007047e9
:020000040000fa
:1030300010b5064c63685b6998472023e35c002b5e
:1030400003d1024a28330121d15410bd9801002038
:020000040000fa
:10305000054a136802210b431360110002220b6919
:0c3060001a42fcd17047c046003000420c
:020000040000fa
:10306c00054a136802210b431360110002220b69fd
:0c307c001a42fcd17047c04600380042e8
:020000040000fa
:10308800a9320000993100000d320000cd32000055
:0c30980091320000b12e00009d320000bb
:020000040000fa
:1030a40000b583b001ab18708222d20504215161ae
:0c30b4000339180000f0e4f803b000bd80
:020000040000fa
:1030c00068076c094c836a9074a07ac00080688895
:0c30d00000846c820081286e696c29006d
:020000040000fa
:1030dc0070b50500fff7fcfe041e01d1200070bd89
:0830ec002800fff761fdf9e780
:020000040000fa
:1030f40010b5fff706ff96220021024800f09cf865
:0831040010bdc04600000020d0
:020000040000fa
:10310c0013b50400019201aafdf79efc6368db066f
:08311c0001d50120404216bd5f
:020000040000fa
:10312400d0400b1cd1409c46203ad3401843524215
:1031340063469340184370479140031c90409c465b
:10314400203a9340194352426346d340194370478f
:1031540010b5002903d1fff7a9fd203002e0081cb7
:08316400fff7a4fd10bdc046f9
:020000040000fa
:10316c000eb403b503aa02ca019200f023f802b010
:06317c0008bc03b0184777
:020000040000fa
:10318200002803d0bff35f8f62b6704772b6bff3f9
:043192005f8ffae76a
:020000040000fa
:10319800034b00229a601a6801210a431a6070479b
:0431a80010e000e053
:020000040000fa
:1031ac0010b58223db0504229a61fef739fdfff787
:0431bc00a4fe10bda0
:020000040000fa
:1031c00010b513000a000249fff7b6fb10bdc04658
:0431d000ffffff7f7f
:020000040000fa
:1031d400eff3108072b6bff35f8f43425841c0b221
:0231e400704732
:020000040000fa
:1031e60010b58222d20594231021d150fff757ff44
:0231f60010bd0a
:020000040000fa
:1031f800002310b59a4200d110bdcc5cc4540133f1
:02320800f8e7e5
:020000040000fa
:10320c00024a136801218b431360704710e000e001
:020000040000fa
:10321c00024a1368013313607047c0465002002005
:020000040000fa
:10322c00024b186800221a607047c04650020020fa
:020000040000fa
:10323c0003001218934200d1704719700133f9e75b
:020000040000fa
:10324c0003001a78002a01d1181a70470133f8e7e5
:020000040000fa
:0e325c000300413b192b01d820231843704773
:020000040000fa
:0e326a000300613b192b01d85f231840704709
:020000040000fa
:0c327800014b84225a6070470040004166
:020000040000fa
:0c32840010b500230022fdf7a1ff10bdd3
:020000040000fa
:0c3290000138014b5860704710e000e06e
:020000040000fa
:0c329c00014b05221a60704710e000e0b2
:020000040000fa
:0c32a800014b18605960704724020020a0
:020000040000fa
:0c32b400014b1860596070473002002088
:020000040000fa
:0c32c000014b1860596070473802002074
:020000040000fa
:0832cc0000487047006cdc02b1
:020000040000fa
:0832d40088300000ff0000003b
:020000040000fa
:0732dc00286e756c6c2900df
:020000040000fa
:0432e400816170474d
:020000040000fa
:0432e8004161704789
:020000040000fa
:0432ec000020704707
:020000040000fa
:0432f0007047c0461d
:020000040000fa
:0200000400807a
:04400000770800003d
:020000040000fa
:0200000400807a
:044004000000ffffba
:00000001FF
