:020000040000fa
:10000000f87f0020cd290000271c00003f210000c0
:1000100000000000000000000000000000000000e0
:1000200000000000000000000000000007240000a5
:10003000000000000000000007240000652f000001
:100040000724000007240000072400000724000004
:1000500007240000072400000724000007240000f4
:1000600007240000072400000724000007240000e4
:1000700007240000072400000724000007240000d4
:1000800007240000072400000724000007240000c4
:10009000b12d000007240000e12d0000072400001e
:1000a00007240000072400000724000007240000a4
:0c00b000072400000724000007240000c3
:020000040000fa
:1000bc00f8b5c046f8bc08bc9e467047ad29000098
:1000cc00f8b5c046f8bc08bc9e46704785290000b0
:020000040000fa
:0800dc00801600000100000085
:020000040000fa
:1000e400f0b5de4657464e464546e0b587b000209b
:1000f40002f0cefb03f00af802f0eef9d54cd64933
:1001040057224c31200003f027f800220021200060
:1001140002f03cfb9621200002f07afcfa2003f066
:100124008df88224e4058023db01a361fa2003f027
:1001340085f880231b02a361fa2003f07ff898233b
:100144002022e2500021232002f08efac82003f07e
:1001540079f80021c14803f05df80021c04803f09c
:100164005ff802f031ff02f03dff03f00ff8bd4be2
:100174009a46bd4b9946bd4b2c330493bc4b443338
:10018400039342e0002e7ed00025ba4a4c32135d20
:10019400ed18adb20134e3b29e42f8d8b64a136802
:1001a40001331360b34c6c23e75c791ec9b22000a1
:1001b4000c3002f0e7fee419e37a834265d0ad4bdc
:1001c40014221a7302f046ffa24cac495c2204319b
:1001d400200002f0c1ff00220021200002f0d6fa24
:1001e4009621200002f014fc9f4a13680133136027
:1001f4000021002002f038fa012003f01ff800214a
:10020400232002f031fa02f098fe8222d205a023c4
:10021400d4588023db011c4000d0a8e1914b01227b
:100224001a7002f0b3ff964b1860924d2800083004
:1002340002f0e8f96a7a70231340702bd8d18d4b01
:10024400db7a402bd4d102f079f90100894d6c237b
:10025400e85428000c3001f0afff02f0a1f90100ce
:100264006e26a85528004c3001f068ff00210020bc
:1002740002f0faf9ae5d052e84d97e4a6e2305217b
:10028400d154052680e7002588e77a4b1b7b642b35
:1002940098d17c4b774c627b1a70a27b5a707a4a55
:1002a400136801331360ff232c22a3540132a35497
:1002b4000132a3540132a3540132a3540132a35492
:1002c400cd3bcd32e2542e33cb3aa3540132a35466
:1002d40020002c30092101f0e9ff4c230022e254d4
:1002e40020004c30012102f01bf84021312002f0a3
:1002f400bbf900248223db059b46a0239846802774
:10030400ff010134a4b2642002f09cff5b46424624
:100314009b583b420cd096235b009c42f1d155483c
:10032400083002f06ff90021002002f09df90be083
:100334005048083002f066f90021002002f094f9d8
:100344002c23ff339c4216d902f084fe414c4f49c2
:100354005e222431200002f0fffe00220021200052
:1003640002f014fa9621200002f052fb3e4a136870
:10037400013313603ce74021322002f075f9002478
:100384008223db059b46a02398468027ff01013486
:10039400a4b2642002f056ff5b4642469b583b429f
:1003a4001ed0c8235b009c42f1d13248083002f0d1
:1003b40029f902f04ffe274c3549602244312000d0
:1003c40002f0cafe00220021200002f0dff996218b
:1003d400200002f01dfb244a13680133136007e771
:1003e4002448083002f00ef99023ff339c42e0d8f1
:1003f40002f0a4f801001f4c6c23e05420000c30e0
:1004040001f0dafe02f0ccf801006e23e054200083
:100414004c3001f093fe237b602b3dd0142b78d01d
:10042400192b00d18ce002f015fe0a4c19495f2209
:100434006431200002f090fe00220021200002f02e
:10044400a5f99621200002f0e3fa074a1368013364
:100454001360cde600000020440700008131000055
:10046400412000009700002054020020440b0000ab
:10047400c40a0000980000205c020020440a000026
:10048400500200204002002058020020c40900004d
:1004940044090000c40800007b4b7c4a12689a425d
:1004a40002d97a4b784a1a60784b1868642101f0b3
:1004b4003bfd040002f0cefd754b1f683b0425d5bf
:1004c400744b1f43724b1f603100280001f0aafbdc
:1004d4000590ff252540704e704c714b9b7b01931a
:1004e4000a21380001f09efb0090059b2a00310090
:1004f4002431200002f0eafd00220021200002f055
:1005040045f99621200002f083fa71e67f047f0cfe
:10051400d8e702f09ffd614c62496022243120003b
:1005240002f01afe00220021200002f02ff9962189
:10053400200002f06dfa5c4a13680133136057e639
:1005440002f088fd554c594960220431200002f024
:1005540003fe00220021200002f018f99621200059
:1005640002f056fa504a13680133136040e61c2027
:1005740001f020fd00282fd1272001f01bfd0028c9
:1005840052d1262001f016fd002800d13be60123bc
:10059400524613708223db058022d2019a615200f5
:1005a4009a6194222021995002f054fd4b461b6815
:1005b4003f4a1268394c3f49096800910499200068
:1005c40002f084fd00220021200002f0dff89621d1
:1005d400200002f01dfa51e0374b01221a708223e9
:1005e400db0592035a6152009a61982220219950a6
:1005f40002f030fd294c314963226031200002f0c1
:10060400abfd00220021200002f0c0f8962120005a
:1006140002f0fef91c2001f0cdfc002800d1f2e527
:10062400642002f00bfef5e7234b01221a708223ab
:10063400db0592039a6152005a6198222021995055
:1006440002f008fd154c66220399200002f084fd97
:1006540000220021200002f099f89621200002f0e7
:10066400d7f902e0642002f0e9fd272001f0a2fca2
:100674000028f7d1c7e5642002f0e0fd262001f050
:1006840099fc0028f7d1bee53c8601005002002009
:10069400400200200000ffffc4070000000000200b
:1006a400980000204408000054020020c408000000
:1006b400580200205c02002097000020440a000039
:020000040000fa
:1006c400415441383531302d454b312044656d6fef
:1006d400204b6974200d0a28632932303232204db0
:1006e4006963726f636869702056342e300d0a771f
:1006f400616974696e6720666f722052462073695f
:10070400676e616c200d0a2e2e2e2e2e20202020a6
:1007140020202020202020202020202020202020d5
:10072400200d0a00415441383531302d454b3120dc
:1007340044656d6f204b6974200d0a28632932309b
:100744003232204d6963726f636869702056342eab
:10075400300d0a77616974696e6720666f72205282
:1007640046207369676e616c200d0a2020202020ca
:100774002020202020202020202020202020202075
:10078400202020202020200d0a0000000d4154418b
:10079400383531302d454b312044656d6f204b6920
:1007a40074200d0a28632932303232204d69637275
:1007b4006f636869702056342e300d0a776169744e
:1007c400696e6720666f72205246207369676e6196
:1007d4006c200d0a2e2e2e2e2e20202020202020ac
:1007e4000d0a00000d202020202064743d25336470
:1007f4007320202020727373693d253364202020e8
:100804000d0a20202020202020202020202020200d
:1008140020202020202020202020202020202020d4
:1008240020200d0a20202020202020202020543d9c
:10083400253364274320202020202020202020202e
:10084400200d0a2020202020202020202052535335
:10085400493d2533642020202020202020200d0a1b
:1008640000000000212121212121212121212121f8
:100874002121212121212121210d0a2053656e737b
:100884006f72206572726f723a202020202020201f
:1008940020200d0a20496e76616c69642073656eb0
:1008a400736f72206461746121200d0a212121215a
:1008b4002121212121212121212121212121212124
:1008c400210d0a0021212121212121212121212160
:1008d4002121212121212121210d0a2053656e731b
:1008e4006f72206572726f723a20202020202020bf
:1008f40020200d0a204c6f77206261747465727930
:1009040020766f6c7461676521200d0a21212121f5
:1009140021212121212121212121212121212121c3
:10092400210d0a003a3a3a3a3a3a3a3a3a3a3a3ad3
:100934003a3a3a3a3a3a3a3a3a0d0a205246207446
:10094400656c656772616d206572726f723a202002
:10095400200d0a2057726f6e672041434b20746547
:100964006c656772616d2120200d0a3a3a3a3a3a71
:100974003a3a3a3a3a3a3a3a3a3a3a3a3a3a3a3ad3
:100984000d0a00003a3a3a3a3a3a3a3a3a3a3a3a94
:100994003a3a3a3a3a3a3a3a3a3a0d0a2052462020
:1009a40074656c656772616d206572726f723a204e
:1009b400200d0a204e6f2052462041434b2074657f
:1009c4006c656772616d212020200d0a3a3a3a3a2b
:1009d4003a3a3a3a3a3a3a3a3a3a3a3a3a3a3a3a73
:1009e4003a0d0a003a3a3a3a3a3a3a3a3a3a3a3afa
:1009f4003a3a3a3a3a3a3a3a3a0d0a205246206397
:100a040068616e6e656c206572726f723a20202088
:100a14000d0a2052462054582074656c6567726133
:100a24006d206572722120200d0a3a3a3a3a3a3a18
:100a34003a3a3a3a3a3a3a3a3a3a3a3a3a3a3a0d3f
:100a44000a0000003a3a3a3a3a3a3a3a3a3a3a3ae0
:100a54003a3a3a3a3a3a3a3a3a0d0a205246206336
:100a640068616e6e656c206572726f723a20200d3b
:100a74000a2057726f6e672041434b2074656c6582
:100a84006772616d21200d0a3a3a3a3a3a3a3a3a93
:100a94003a3a3a3a3a3a3a3a3a3a3a3a3a0d0a0049
:100aa4000d52462d4368616e6e656c203433332ecf
:100ab40039324d487a200d0a4461746120526174c0
:100ac4006520386b4269742f732020202020202059
:100ad4000d0a46534b20646576696174696f6e2014
:100ae4002b2f2d386b487a200d0a4d616e63686593
:100af4007374657220436f64696e67202020202020
:100b04000d0a00000d434f4d20506f727420536541
:100b14007474696e67733a20202020200d0a626184
:100b24007564726174652033382e34206b426175ac
:100b340064202020200d0a382064617461202b2059
:100b4400312073746f702062697420202020200d7e
:100b54000a6e6f207061726974792c206e6f206840
:100b6400616e6473682e200d0a0000000d526563e7
:100b740065697665722073746174697374696373eb
:100b84003a20200d0a76616c696423202531306493
:100b9400202020200d0a6572726f722320253130c7
:100ba40064202020200d0a746f74616c2320253189
:0c0bb4003064202020200d0a0000c04604
:020000040000fa
:100bc0000023f0b506001500afb00591019305991b
:100bd0000b78002b00d10fe101235b420a930eab8f
:100be00000240c93802309940b940d930b5d002b30
:100bf00001d0252b2ad1002c06d02200300002f093
:100c00008bf9059b1b190593059b1a78252a00d0a3
:100c1000e7e0013302930593022310219c46082745
:100c2000059803782b2b1bd025d8202b1bd0232bea
:100c30001dd02a2b2ad001f0b3ff0b90059b1a7808
:100c4000303a092a33d801330593f7e70134cde769
:100c50000122099b80180393134309930590dfe752
:100c60000423099a0ee0099b03933b430be0099b85
:100c700003930b4307e02d2bead0302bd9d16246ea
:100c8000099b0393134309930130e7e72b68013075
:100c90001a1d1b6805902a600b93002b07da099a2e
:100ca0005b420392012203990b934a400992099bec
:100cb000da0702d5022293430993059b1a782e2a5c
:100cc0000ed10022581c0a9205905a782a2a28d15f
:100cd000023305932b681a1d1b682a6003930a933d
:100ce00005a802f04bf8059b0700187802f068fa97
:100cf000692800d183e035dc632800d1d6e01bdc15
:100d0000252800d1dfe0612859d0252306aa1370d9
:100d1000029b0593002309930b93013b0a93023333
:100d2000b2e001f03dff0a90059b1a78303a092a9b
:100d3000d6d801330593f7e7642860d06728e4dc50
:100d40002a00390006a802f0d2f8002800d1a9e054
:100d5000059b09a95a1c05921b7806aa300002f0cf
:100d60007ffa3de0702800d17de016dc6e2800d1ce
:100d700091e06f28c9d12b000022390006a800f0ad
:100d8000f7ff002800d18de0059b06aa013309a9d1
:100d90003000059301f000fb22e0752840d0782850
:100da0004fd07328b1d1802f00d07be0059b2a68fb
:100db00001330593131d2b601268002364e02a00a1
:100dc000390006a802f093f8002800d16ae0059bdc
:100dd00009a95a1c05921b7806aa300002f040fab5
:100de0002418019b1c19a34200dc74e04f223b4bea
:100df0001a6001235b42019301982fb0f0bd2b00d4
:100e00000122390006a800f0b3ff00284ad0059b54
:100e100006aa013309a93000059300f0abfedfe715
:100e20002b000022390006a800f0a2ff002839d0cc
:100e3000059b06aa013309a93000059301f0d4fcf3
:100e4000cee72b000022390006a800f091ff002811
:100e500028d0059b5a1c05921b7806aa09a93000c8
:100e600000f04cfbbce72b000022f02106a800f0ac
:100e70007fff002816d0059b079a01330593069b38
:100e8000134306d1164a163209a9300001f02afd93
:100e9000a6e77823e1e7019b39001a1906a82b0081
:100ea00001f0e8fa059b013305939ae7802ff9d109
:100eb000059b013305932b681a1d1b682a6006aa3f
:100ec00013700123e0e7802fecd1059b06aa0133c4
:100ed00005931070f5e7019479e6c0466c02002096
:040ee0003c300000a2
:020000040000fa
:100ee4000607207d000000000000002020202020b4
:100ef4000020505050000000005050f850f850505e
:100f04002078a07028f020c0c81020409818609065
:100f1400a040a890686020400000000010204040dd
:100f240040201040201010102040005020f8205085
:100f340000002020f8202000000000006020400075
:100f44000000f800000000000000006060000810cd
:100f540020408000708898a8c888702060202020d5
:100f64002070708808102040f8f81020100888704d
:100f740010305090f81010f880f008088870304055
:100f840080f0888870f8081020404040708888708d
:100f940088887070888878081060006060006060dd
:100fa400000060600060204008102040201008000d
:100fb40000f800f80000804020102040807088086d
:100fc4001020002070880868a8a87070888888f8a5
:100fd4008888f08888f08888f0708880808088709d
:100fe400e09088888890e0f88080f08080f8f8802d
:100ff40080e080808070888080988870888888f8f5
:1010040088888870202020202070381010101090bc
:10101400608890a0c0a09088808080808080f888bc
:10102400d8a8888888888888c8a898888870888874
:1010340088888870f08888f080808070888888a884
:101044009068f08888f0a09088788080700808f014
:10105400f820202020202088888888888870888824
:101064008888885020888888a8a8d88888885020ac
:1010740050888888885020202020f808102040803c
:10108400f83820202020203800804020100800e07c
:101094002020202020e020508800000000000000d4
:1010a400000000f8402010000000000000700878e4
:1010b40088788080b0c88888f0000070808088704c
:1010c4000808689888887800007088f8807030482c
:1010d40040e0404040000078887808308080b0c804
:1010e4008888882000602020207010003010109024
:1010f400604040485060504860202020202070000c
:1011040000d0a8a888880000b0c88888880000702b
:10111400888888700000f088f080800000689878e3
:1011240008080000b0c8808080000070807008f05b
:101134004040e040404830000088888898680000bb
:10114400888888502000008888a8a850000088500b
:10115400205088000088887808700000f81020402b
:10116400f810202040202010202020202020204083
:08117400202010202040c0469d
:020000040000fa
:10117c00f0b5de4657464e464546e0b583b0804650
:10118c009246002939d0002837d0674a5268072088
:10119c001040019045d15246002a00d1a5e062488a
:1011ac00007e420705d560480425826a027e2a42e9
:1011bc00fbd15d48448b04252c434483047e80255d
:1011cc002c430476002291468b4201d95a1a91463f
:1011dc00019a002a04d05b0849084a4652089146f5
:1011ec00514d01242a7e2242fcd0002000274e4c77
:1011fc000426012500908b462fe00020002b69d09f
:10120c005246002a6dd0484a52680730104001906f
:10121c0000d17de0002900d080e0da0705d5002060
:10122c0058e0ca075fd4002bf7d14046441ea041ba
:10123c0040420140afe77a004046125ad205d20d27
:10124c00a262013712e0394aa26238e0009859468e
:10125c00227e2a42fcd000908b465f4527d0019a13
:10126c00002ae8d14246d25da2620137002bedd0b4
:10127c0000985946227e3242fcd000908b46a26ade
:10128c0001009842e9d20198002804d150464254fa
:10129c0001310091e1e7009948008446d205d20d56
:1012ac00504661460a52009901310091d5e74a46f1
:1012bc00002a09d0019a002ac5d1ff32a26201226c
:1012cc0052429446e144d1e7174902320b7e134255
:1012dc00fcd0012003b03cbc90469946a246ab46dc
:1012ec00f0bd0020f6e70020f4e70f4b187e00233a
:1012fc00420700d557e70c4b588b042420435883e6
:10130c00187e8024204318760023002291465fe744
:10131c004246002a00d03ee7019940e7ca0700d4b4
:10132c007be70020d6e7c04600080042ff01000022
:020000040000fa
:10133c00f0b5de4657464e464546e0b583b080468e
:10134c009246002939d0002837d0674a52680720c6
:10135c001040019045d15246002a00d1a5e06248c8
:10136c00007e420705d560480425826a027e2a4227
:10137c00fbd15d48448b04252c434483047e80259b
:10138c002c430476002291468b4201d95a1a91467d
:10139c00019a002a04d05b0849084a465208914633
:1013ac00514d01242a7e2242fcd0002000274e4cb5
:1013bc000426012500908b462fe00020002b69d0dd
:1013cc005246002a6dd0484a5268073010400190ae
:1013dc0000d17de0002900d080e0da0705d500209f
:1013ec0058e0ca075fd4002bf7d14046441ea041f9
:1013fc0040420140afe77a004046125ad205d20d66
:10140c00a262013712e0394aa26238e000985946cc
:10141c00227e2a42fcd000908b465f4527d0019a51
:10142c00002ae8d14246d25da2620137002bedd0f2
:10143c0000985946227e3242fcd000908b46a26a1c
:10144c0001009842e9d20198002804d15046425438
:10145c0001310091e1e7009948008446d205d20d94
:10146c00504661460a52009901310091d5e74a462f
:10147c00002a09d0019a002ac5d1ff32a2620122aa
:10148c0052429446e144d1e7174902320b7e134293
:10149c00fcd0012003b03cbc90469946a246ab461a
:1014ac00f0bd0020f6e70020f4e70f4b187e002378
:1014bc00420700d557e70c4b588b04242043588324
:1014cc00187e8024204318760023002291465fe783
:1014dc004246002a00d03ee7019940e7ca0700d4f3
:1014ec007be70020d6e7c04600180042ff01000051
:020000040000fa
:1014fc00f0b58fb00d934b680c9008938b680d0072
:10150c000993cb6816000393089b0f68002b60dbd4
:10151c0002239f4310233b400a933368059373685f
:10152c000693099b04930a9b002b06d0059b069af5
:10153c00134302d0099b023b049308233b400b93bb
:10154c005a1e9341049ad31a04932b69039a5c1e76
:10155c0000231355089b0793012c10dd059b069a5d
:10156c00134339d1079b002b36dc089a049b9b1a3a
:10157c00079a9b18002b02dd02231f422cd10a9bd9
:10158c00002b0bd00cce134308d0039b0d9a1b19c8
:10159c00013b1a703023039a023c13550b9b002b12
:1015ac0003d02023039a013c13552b6900975a1e34
:1015bc00039b121b19190c98099b00f037fe0c9b0e
:1015cc005b68db0503d56b68984200da18000fb036
:1015dc00f0bd012308939de70f22059b013c1340ae
:1015ec0018005730092b01dc303318000d9b413ba0
:1015fc00192b06d820230343613b192b01d801f08a
:10160c00e0fd039b1855079b013b0793069b1a07ac
:10161c00059b1b091a43069b05921b0906939be726
:020000040000fa
:10162c00080200201c000000000000002402002022
:10163c000c00000000000000300200200800000038
:10164c00000000003802002008000000000000002c
:10165c00980100203000000000000000580100201c
:10166c0040000000000000004802002004000000c0
:10167c00000000004c0200200400000000000000ec
:10168c009600002001000000000000004002002035
:10169c0008000000000000005002002004000000c0
:1016ac0000000000540200200400000000000000b4
:1016bc0058020020040000000000000098000020e8
:1016cc0070000000000000009700002001000000e6
:1016dc000000000000000020960000000000000048
:1016ec005c020020040000000000000060020020ea
:1016fc000400000000000000c801002020000000d1
:10170c0000000000e80100202000000000000000a4
:10171c00640200200400000000000000080100200a
:10172c0050000000000000006802002004000000cf
:10173c00000000006c02002004000000000000000b
:10174c00000000000000000022222222222222227d
:020000040000fa
:10175c00f0b5060085b00f0015001c008b4265d853
:10176c0001d1824262d82100280001f09ffc39008f
:10177c000090300001f09afc009b21001b1a1a000b
:10178c002800039301f086fc00900191019bbb4261
:10179c0046d802d1009bb34242d8009b019c039acd
:1017ac0001200021f61aa74101f074fc039b002bc9
:1017bc002fd0019b009adb0754081c43019b5d084a
:1017cc00039b9c46bd422ed801d1b4422bd832008b
:1017dc003b00121bab41012692185b410027b61847
:1017ec005f4101235b429c446346002bead1801984
:1017fc007941039a04000d003000390001f03efce1
:10180c00039a06000f0001f045fc241a8d412000bc
:10181c0029000a9b002b01d01e605f6005b0f0bd53
:10182c0000200021c2e7b6197f41dae70020002131
:02183c00efe7d4
:020000040000fa
:02183e007047f1
:020000040000fa
:10184000f8b5344d6c6aaa69eb69012000211218c1
:101850004b41aa61eb61002c4dd02022ab5c0133df
:10186000ab54a368002b05d0a368013ba3606c6a4e
:10187000002c24d0a368002b21d101250027254e60
:101880000de0e06901f06cf9e368002b01d02069fc
:101890009847746a002c12d0a368002b0fd12575cd
:1018a0006575a378002b02d1e368002be9d12000f5
:1018b00000f0c6ffa378002be6d16770e4e7164b73
:1018c0005b7d002b05d0144b00225a759b78012bb1
:1018d00012d0114a3523d35c002b07d013003522d8
:1018e00000219954133a9b5c012b0bd0094920220b
:1018f0008b5c013b8b54f8bd07484368836000f064
:101900000df8e6e70448436a8362203000f006f8e9
:0c191000ece7c0469801002058010020c0
:020000040000fa
:10191c00f0b5de4657464e464546e0b585b08146a5
:10192c0000284bd02e4b596a83689a4600290cd05c
:10193c008b6852460392002290469a4545d300226a
:10194c0000238b460092019305e052468260244ba3
:10195c00586233e0e3465e46b66834000025009ad0
:10196c00019b12196b41009201935e46b669b44615
:10197c00002e12d06646b66800210f00009a019b1b
:10198c00b6185f41474525d8e4d1039b9e42e1d967
:10199c0060465946009a019b01e0300059464c467e
:1019ac00a0618c6151468a1a4b469a609b69002b48
:1019bc0004d04a4691689a68521a9a6005b03cbca9
:1019cc0090469946a246ab46f0bd054b58628161e4
:1019dc000022e7e760465946009a019bdfe7c046c4
:0419ec00980100203e
:020000040000fa
:1019f0002b4b5a6852031b68db0c13439b029b0a58
:101a0000284a936300235375110004228b691a42fc
:101a1000fcd124491022cb681a42fcd0224b002270
:101a20009a611a61214b224a1a62190004224b68fa
:101a30001a42fcd11d4ad0234021d15010009031d0
:101a4000402243581a42fcd0184adc234021d1508e
:101a500010009c31402243581a42fcd0134ae42320
:101a60004021d1501000a431402243581a42fcd0ea
:101a70000e4af8234021d1501000b831402243587b
:101a80001a42fcd0094afc234021d1501000bc313d
:101a9000402243581a42fcd0064b074ada6170478d
:101aa000206080000010004000140040001c004036
:0c1ab000060101000008004064f0000086
:020000040000fa
:101abc0030b58223db052a4a1a602a4a1a610022b1
:101acc0042215a540c315a5401315a544e39502037
:101adc00195401301a540130195401301954013081
:101aec001a5401301a5406301a5455385c241855bf
:101afc002b3c1a5506341a55013402251d55013458
:101b0c0020351d5501341a5503341a5501341a5514
:101b1c0042340e351d51413460355c5130355955c8
:101b2c0019550134195502341a5501341a5501341a
:101b3c001855013418550334195501341955cd3144
:101b4c0058549b39aa3019540130c83c1c540130ec
:101b5c001a5401301a540230195484315a5430bd7d
:081b6c0004c03208000030182b
:020000040000fa
:101b7400f0b54b6889b005930b6807009c46079342
:101b8400cb680c008e68049310685168cd0f44d064
:101b94000b000200002150429941059b002b08dbf9
:101ba4000222634693430793002d02d1079b5a07f1
:101bb4002ad5731e07aa02920a22009301920b00ef
:101bc4000200200000f07afa002d02d1079b5a0788
:101bd4001ed501382d23002d00d1023b049a135445
:101be40023695a1e049b121a1918079b3800009384
:101bf400330000f01ffb7b68db0503d56368984264
:101c040000da180009b0f0bd1b07db0ff31ad1e7a7
:101c14001b07e5d501382023e0e7059b002bbfda3d
:021c2400c4e713
:020000040000fa
:021c2600fee7d7
:020000040000fa
:101c2800002941d010b4041c4c40a44601230022d2
:101c3800002900d54942002800d5404288422cd3cb
:101c480001242407a14204d2814202d209011b01c6
:101c5800f8e7e400a14204d2814202d249005b00c5
:101c6800f8e7884201d3401a1a434c08a04202d32d
:101c7800001b5c0822438c08a04202d3001b9c086e
:101c88002243cc08a04202d3001bdc0822430028d0
:101c980003d01b0901d00909e3e7101c6446002c96
:101ca80000d5404210bc704701b5002001f0d6fabb
:101cb80002bdc0460029f7d003b5fff7b3ff0ebc3d
:081cc8004243891a1847c04687
:020000040000fa
:101cd00070b58224e40580252d0565610a2001f098
:101ce000b3faa5610a2001f0affaa82001f02dfa9d
:101cf0001f2001f02afad32001f027fa002001f07a
:101d000024fa402001f021faa12001f01efac82097
:101d100001f01bfada2001f018fa022001f015fa9e
:101d2000812001f012fa8f2001f00ffaa42001f0b7
:101d30000cfaa62001f009fad52001f006fa80205d
:101d400001f003fa8d2001f000fa142001f0fdf9f2
:101d5000db2001f0faf9402001f0f7f9d92001f079
:101d6000f4f9f12001f0f1f9af2001f0eef970bdc6
:020000040000fa
:101d700030b5882933d015dc812941d003dc802996
:101d80003ed0002030bd822911d08429f9d11c68b1
:101d900002cc1c60002a1ed009b20160c917416044
:101da0000120efe7a02923d00adc9029e9d10724fc
:101db00019680731a14330c9196004604560efe735
:101dc000c02901d0f029dcd11a68111d19601368ef
:101dd0000360002312e089b201604260e0e71c6802
:101de00002cc1c60002a01d049b2d6e7c9b2f3e7a1
:101df0001a68111d196013680360db174360cfe791
:101e000019680c1d1c600b680360002ae5d0f4e71c
:020000040000fa
:101e1000f0b5c6461f4a204b00b50021934203d2bd
:101e2000197001339342fbd10b231c4a9c46083b9b
:101e300098461368546819000026214311d01700f2
:101e400091680c3700290fd11a19002c03d01e708d
:101e500001339342fbd13a001368546819002143bf
:101e6000edd104bc9046f0bd6146c91a1d19511848
:101e7000002c05d05a1c505c187013009542f9d103
:101e8000434623405a1e9341a4081c19a4003f193d
:101e90003a00e1e700000020000000202c160000be
:020000040000fa
:101ea000f0b5d6464f464646c0b582b00f00d308bf
:101eb00000931c4b5a7892469e78861b5643b2b2ca
:101ec0001b78cb18dbb299468024174bd3180193ab
:101ed0005546984615e05208c11849b20133a94247
:101ee00006da19782142f6d03243d2b2f3e7002263
:101ef0003900009800f00aff0137ffb264084f452f
:101f00000ad05346002bf2dd019b00228026764248
:101f100001204146401ae4e702b01cbc90469946b5
:0c1f2000a246f0bde40e0000e80e000038
:020000040000fa
:101f2c00002934d00123002210b488422cd3012480
:101f3c002407a14204d2814202d209011b01f8e715
:101f4c00e400a14204d2814202d249005b00f8e7ce
:101f5c00884201d3401a1a434c08a04202d3001bfa
:101f6c005c0822438c08a04202d3001b9c0822432d
:101f7c00cc08a04202d3001bdc082243002803d06b
:101f8c001b0901d00909e3e7101c10bc704701b50f
:101f9c00002001f061f902bd0029f8d003b5fff76c
:0c1fac00c1ff0ebc4243891a1847c04612
:020000040000fa
:101fb800f0b5c64600b5050026281ad0272811d046
:101fc80000241c2805d08227ff05a0239846012657
:101fd8001ce08223db051c6ae400e40f002cf2d02d
:101fe800002026e08222d205a023d4582406e40f3c
:101ff800f4e78222d205a023d4586406e40fede763
:102008004346fc58e4093440002c11d0022001f06a
:1020180013f9262d07d0272df2d01c2df4d13c6ab8
:10202800240f3440f0e74346fc58a4093440ebe75a
:08203800012004bc9046f0bd3c
:020000040000fa
:1020400010b58222d205a023d3585b0411d5184bba
:102050001b78002b0dd1174b1b78002b0ad0012bbe
:1020600014d0144b1b780133dbb2022b1bd0114a66
:10207000137010bd104c64221049200001f06ef85e
:1020800000220021200000f083fbeae70a4c0b4904
:1020900066226431200001f061f800220021200056
:1020a00000f076fbdde7034b00221a70e1e7c04643
:1020b000970000209600002000000020c4060000c9
:020000040000fa
:1020c000f0b5050085b019000c9b100001931a684b
:1020d0002b696c68013bef681d00002c00da0124bd
:1020e0000026fe540a9e0123361b02960226164045
:1020f0000b9ad2170392002d04dc002b17d0280076
:1021000005b0f0bd02000a4307d1002c05dc029a9d
:102110001219002af1dd002eefd00b9a039b00f07c
:102120005ffd013d130030327a55013ce3e7102397
:0e213000019a12689a431300019a1360dfe7c8
:020000040000fa
:02213e00fee7ba
:020000040000fa
:10214000f0b583b001900e008027bf0239008220d5
:10215000c00501f083f8192000f080fd122000f086
:102160007dfd134d05232b706e70721ca81c002181
:1021700001f016f8f11c0f4c0b0022002800fef7ae
:10218000fdff232000f06afd39008220c00501f028
:1021900063f8102000f062fd074b22781a70627815
:1021a0005a70e11c3200019800f0d8ff03b0f0bd76
:0c21b000e8010020c801002060020020af
:020000040000fa
:1021bc00f0b583b001900e008027bf023900822059
:1021cc00c00501f045f8192000f042fd122000f086
:1021dc003ffd134d06232b706e70721ca81c002142
:1021ec0000f0d8fff11c0f4c0b0022002800fef76a
:1021fc00bfff232000f02cfd39008220c00501f028
:10220c0025f8102000f024fd074b22781a70627814
:10221c005a70e11c3200019800f09aff03b0f0bd37
:0c222c00e8010020c80100206002002032
:020000040000fa
:10223800f0b51e00012389b014000e9a07001a4059
:102248000291019220d1b4421eda351b03952a006f
:10225800102d00d91022202104a800f09dff0f2d79
:102268001bdc0f22039b04a913401a00380000f05e
:102278004ffe019b002b04d122000299380000f088
:1022880047fe300009b0f0bd22000299380000f086
:102298003ffeb442d9db2600f3e7102204a9380038
:0822a80000f036fe103ddae7fc
:020000040000fa
:1022b000f0b583b001900c008026b6028225ed05b2
:1022c0003100280000f0caff192000f0c7fc1220de
:1022d00000f0c4fc104f0b233b707c70b81c220034
:1022e000019900f03bffa11c0c4c0b0022003800b0
:1022f000fef744ff232000f0b1fc3100280000f07d
:10230000abff102000f0aafc054b22781a7062780f
:102310005a7003b0f0bdc046e8010020c80100209b
:042320006002002037
:020000040000fa
:10232400f0b583b001900c008026b6028225ed053d
:102334003100280000f090ff192000f08dfc1220dd
:1023440000f08afc104f0c233b707c70b81c2200f8
:10235400019900f001ffa11c0c4c0b002200380075
:10236400fef70aff232000f077fc3100280000f07c
:1023740071ff102000f070fc054b22781a7062780f
:102384005a7003b0f0bdc046e8010020c801002027
:0423940060020020c3
:020000040000fa
:10239800f0b50b680c008f68cd68496887b00600f7
:1023a8000593002902db02218b43059305a9536895
:1023b800126802910821009701912000fff77cfe26
:1023c800059bdb0602d5302301382b54059b1b07e0
:1023d80002d5202301382b54236929185a1e059b3e
:1023e800121a009330003b00fff722ff7368db05e9
:0e23f80003d56368984200da180007b0f0bd04
:020000040000fa
:02240600fee7ef
:020000040000fa
:1024080010b5002925d0002826d1154c28230122f3
:10241800e2540b686360fa229200e26004228a5652
:10242800227200200021a061e16100226262202165
:1024380062541b6800210b48984763685b6898479b
:1024480040220021084800f0a7fe02232370200044
:1024580010bd01204042fbe701204042f8e7c0469a
:0c246800980100204118000058010020dd
:020000040000fa
:1024740010b584291fd007dc812915d0822922d0e8
:10248400802911d0002010bd90291cd008dc882997
:10249400f8d119680c1d1c600b6803601a7010e0f9
:1024a400a02901d0c029edd119680c1d1c600b684e
:1024b40003601a6005e019680c1d1c600b6803605a
:1024c4001a800120dfe719680c1d1c600b6803608b
:0824d4001a60d2175a60f4e708
:020000040000fa
:1024dc0070b5174b00221a605a601a725a729a72af
:1024ec00da720023124805002c3504004c34c11854
:1024fc000a7359190a7019190a700133202bf6d175
:10250c000b4c00236c22a3540132a3540132a3546c
:10251c0000f012fc2000083000f070f800f0d2f847
:10252c000209d2b222600f230340636070bdc04623
:04253c0098000020e3
:020000040000fa
:1025400070b58026b6028225ed053100280000f026
:1025500085fe192000f082fb122000f07ffb0e4860
:10256000012303700023837043700c4c033322005b
:102570000321fef703fe232000f070fb310028004a
:1025800000f06afe102000f069fb054b22781a70fb
:1025900062785a70a07870bde8010020c801002060
:0425a00060020020b5
:020000040000fa
:1025a40070b58026b6028225ed053100280000f0c2
:1025b40053fe192000f050fb122000f04dfb0e4892
:1025c400032303700023837043700c4c03332200f5
:1025d4000321fef7d1fd232000f03efb310028004b
:1025e40000f038fe102000f037fb054b22781a70fb
:1025f40062785a70a07870bde8010020c8010020fc
:042604006002002050
:020000040000fa
:10260800f8b507008026b6028225ed0531002800be
:1026180000f020fe192000f01dfb122000f01afb2c
:102628000e48042303700022002141708270c2709a
:102638000b4c042322000431fef79cfd232000f0fc
:1026480009fb3100280000f003fe102000f002fb17
:1026580004222100380000f07dfdf8bde8010020cb
:04266800c801002085
:020000040000fa
:10266c00f8b507000c008026b6028225ed05310076
:10267c00280000f0edfd192000f0eafa122000f01d
:10268c00e7fa0d480d230370477084700b4c0a3b1e
:10269c0022000321fef76cfd232000f0d9fa310053
:1026ac00280000f0d3fd102000f0d2fa044b227861
:1026bc001a7062785a70f8bde8010020c801002039
:0426cc006002002088
:020000040000fa
:1026d00070b58026b6028225ed053100280000f095
:1026e000bdfd192000f0bafa122000f0b7fa0e482a
:1026f000122303700023837043700c4c03332200b9
:102700000321fef73bfd232000f0a8fa310028004a
:1027100000f0a2fd102000f0a1fa054b22781a70fb
:1027200062785a70a07870bde8010020c8010020ce
:042730006002002023
:020000040000fa
:1027340000230e4a10b513600d4a13600d4a13604e
:102744000d4a13600d4a13600d4a5362136101333d
:10275400936000f028fc00f026fc0a4c0a4b9c42d3
:1027640000d310bd08cc9847f8e7c04668020020a3
:102774001401002010010020080100200c01002099
:0c27840018010020c8000000cc0000007c
:020000040000fa
:10279000f0b583b00400019117000d00114e08e060
:1027a00072780132bf18ffb2019d01342378002beb
:1027b00016d020780a28f3d00d28f6d03a00290048
:1027c000fff76efb2378202b04d0064b1b78ed1807
:1027d000edb2eae7034b1b78023bed18edb2e4e7fc
:0827e00003b0f0bde40e00009f
:020000040000fa
:1027e800f0b50b680c008f68cd68496887b00600a3
:1027f8000593002902db02218b43059305a9536841
:10280800126802910a21009701912000fff754fcf9
:10281800236929185a1e059b121a009330003b00a1
:10282800fff706fd7368db0503d56368984200da95
:06283800180007b0f0bd1e
:020000040000fa
:02283e007047e1
:020000040000fa
:1028400010b5134b5a6a002a19d0824205d1836908
:10285000002b15d0002208e01a009369002b0ed03f
:102860009842f9d18369002b05d0846899680919c9
:102870009960002a06d0836993610023836110bdab
:102880001a00f6e7024b5a6a92695a62f5e7c046a7
:04289000980100208b
:020000040000fa
:1028940010b5104b06225a60fff70ef9fff7a6f8a1
:1028a40000f09afc00f0cafafef7c7ff00f046fbfe
:1028b40000f0dafa00f00cfa00f030f900f0caf88f
:1028c40005490020fff79efd044b186000f0a6f9af
:1028d40010bdc046004000413832000048020020cc
:020000040000fa
:1028e400f0b50f0087b0039015001049072204a823
:1028f4001c0000f031fcbb687e6802933f68002d29
:1029040000d104ad002c03d1280000f04ffc0400da
:10291400002e02dbb44200d934000097029b22004f
:1029240029000398fff786fc07b0f0bd5032000081
:020000040000fa
:1029340030b51500012289b0524201920432ff32af
:102944000292002800d16846002403900491a14219
:1029540000d04c1e0594002906da4f220120074bb3
:1029640040421a6009b030bd002207900270069000
:102974001a00290001a800f079fbf3e76c0200209b
:020000040000fa
:1029840010b5064c2378002b07d1054b002b02d041
:10299400044800e000bf0123237010bd080200209a
:1029a4000000000000000000044b10b5002b03d011
:1029b4000349044800e000bf10bdc0460000000009
:0829c4000c02002000000000dd
:020000040000fa
:1029cc0010b50a4b98470a4b9847fff71bfa094b6f
:1029dc00ff229343084a9360084b9847084b98474b
:1029ec00084b9847fdf778fbfee7c0463f280000f0
:1029fc003f2800000000000000ed00e0352700003b
:082a0c003f2800003f280000f4
:020000040000fa
:102a140070b5002818d0002918d000250c4a0124cc
:102a2400072605e06b00c35a13850135a94209d076
:102a3400137e2342fcd053683340012bf2d0435d14
:102a44001385f2e7012070bd0020fce70120fae7be
:042a54000014004228
:020000040000fa
:102a58000d4b01221a6019000b691a42fcd10a4b6e
:102a6800e322d2001a6003221a73084ada61332279
:102a78009a72074a0021116001225a721a001369da
:102a8800002bfcd17047c046003800423e49000088
:042a980038020020e0
:020000040000fa
:102a9c00431e033315d80d4b184215d103041b0ce0
:102aac0059010b4a5218d169002281420ad15a01ac
:102abc000749515c0022002904d05b01044ad2185a
:102acc0000e00022100070470022fbe7feff000030
:042adc00580100207d
:020000040000fa
:102ae00070b50d4b5e681b68db0714d50b4b584364
:102af000094b9b6800280ed00021074c013605e0e9
:102b0000b51aeb18c9181300884204d9a2689a4272
:102b1000f6d89b1af6e770bd10e000e080bb00001d
:020000040000fa
:102b20000c4b01221a6019000b691a42fcd1094ba7
:102b300018221a60153a1a73074ada6133229a7218
:102b4000064a0021116001225a721a001369002bf3
:102b5000fcd17047003000420053070030020020d3
:020000040000fa
:102b600010b5040000f054f9002817d02000fff73a
:102b700095ff041e10d04378002b08d10023237545
:102b800063752370002400f011fa200010bdfff7d8
:102b900057fe00236370f1e70124f4e70124f4e712
:020000040000fa
:102ba000030010b51a78202a0dd011000939042924
:102bb00009d900212b2a02d02d2a01d1013101335c
:102bc00000200a2404e00133ece760430133801a5b
:102bd0001a78303a092af8d9002900d1404210bdac
:020000040000fa
:102be000002b11d1002a0fd1002900d1002802d0da
:102bf0000021c943081c07b4024802a140180290f2
:102c000003bdc0466106000003b4684601b50298e2
:102c1000fef7a4fd019b9e4602b00cbc7047c04667
:020000040000fa
:102c2000bff35f8f62b60b4bc52189005a58ff2056
:102c300082433f3802435a50802252031a605a5846
:102c400005481040c022120402435a508022d20389
:0c2c50001a60704700e100e0ffff00ff89
:020000040000fa
:102c5c0070b50d4a56681368db0713d54300181876
:102c6c00000193680ed000211400013605e0b51a5e
:102c7c00eb18c9181300884204d9a2689a42f6d8f6
:0c2c8c009b1af6e770bdc04610e000e0a7
:020000040000fa
:102c98001c2101231b04984201d3000c10391b0a84
:102ca800984201d3000a08391b09984201d3000948
:102cb800043902a2105c40187047c046040302029f
:0c2cc800010101010000000000000000fc
:020000040000fa
:102cd4000a4b0b4a1a600b4a9a81802252025a60ac
:102ce4001a00d369002bfcd1044a136802210b4358
:102cf4001360d369002bfcd17047c0460014004216
:082d040004010140b9fcffffce
:020000040000fa
:102d0c0070b50e0014000f252840b023184300f0b6
:102d1c0016fa7006400f1023184300f010fa280022
:102d2c00304000f00cfa10218222d2059823d150a9
:082d3c00200000f06ff970bdea
:020000040000fa
:102d440070b580218224e4054903200000f084fa50
:102d54008025ad032900200000f07efafa208000cf
:102d6400fff77aff2900200000f074fa0148fff70a
:082d740073ff70bd881300001d
:020000040000fa
:102d7c00f0b5050000200a4c4200165d002e02d171
:102d8c00a2185078f0bd296801300f78c0b2b74254
:102d9c0003d1a2180131507829600a28ecd9f1e747
:042dac003c300000b7
:020000040000fa
:102db00010b5094b5b7a002b0dd0074b987ac0b247
:102dc00033229a72002806d0044b1b68002b02d0d5
:102dd000024a5168984710bd00300042300200207e
:020000040000fa
:102de00010b5094b5b7a002b0dd0074b987ac0b217
:102df00033229a72002806d0044b1b68002b02d0a5
:102e0000024a5168984710bd00380042380200203d
:020000040000fa
:102e100010b50a4a2023d35c0120002b04d12833ab
:102e2000d35c0020012b00d010bd1300282200210c
:102e300099545b689b6998470120f5e79801002049
:020000040000fa
:102e4000084b802292025a601a00d369002bfcd1f1
:102e5000044b2f221a73044a1a601a00d369002bfc
:0c2e6000fcd17047000800420e00010089
:020000040000fa
:102e6c00084b802292025a601a00d369002bfcd1c5
:102e7c00044b17221a73044a1a601a00d369002be8
:0c2e8c00fcd17047001800420e0001004d
:020000040000fa
:102e980010b500f04df9074b07221a601b68db03d9
:102ea80005d5054a51688023db040b43536000f0c5
:0c2eb80016f910bd10e000e000ed00e095
:020000040000fa
:102ec40070b5402000f03ff90025002634003200a0
:102ed40021002800fff718ff0134e4b2802cf6d15a
:0a2ee4000135edb2042df1d170bdef
:020000040000fa
:102eee00002380290fdb812901dd83290bd10721e6
:102efe00136807338b431900083111601a685b6839
:0a2f0e0002604360012318007047c1
:020000040000fa
:102f180070b505690400954200d915002a0060695a
:102f280000f018f9226963695b19551b00222561b5
:062f380063611a7070bd18
:020000040000fa
:022f3e007047da
:020000040000fa
:102f4000054a002313609360044951600621116013
:102f5000034a93601360704710e000e07fbb0000fd
:042f60002402002027
:020000040000fa
:102f640010b5064b1b68064b9a6801329a601b68c1
:102f7400002b02d0024a5068984710bd10e000e0d0
:042f84002402002003
:020000040000fa
:102f880010b500290bd000220023845c1b19dbb28a
:102f98000132d4b2a142f8d85842c0b210bd0b00d9
:022fa800fae746
:020000040000fa
:022faa0070476e
:020000040000fa
:102fac0010b5064c63685b6998472023e35c002be3
:102fbc0003d1024a28330121d15410bd98010020bd
:020000040000fa
:102fcc00054a136802210b431360110002220b699e
:0c2fdc001a42fcd17047c0460030004291
:020000040000fa
:102fe800054a136802210b431360110002220b6982
:0c2ff8001a42fcd17047c046003800426d
:020000040000fa
:103004000d320000fd30000071310000313200004b
:0c301400f5310000992e00000132000090
:020000040000fa
:1030200000b583b001ab18708222d2050421516132
:0c3030000339180000f0d8f803b000bd10
:020000040000fa
:10303c0068076c094c836a9074a07ac00080688819
:0c304c0000846c820081286e696c2900f1
:020000040000fa
:1030580010b5fff733ff96220021024800f09cf8d4
:0830680010bdc046000000206d
:020000040000fa
:1030700013b50400019201aafdf7a2fd6368db0607
:0830800001d50120404216bdfc
:020000040000fa
:10308800d0400b1cd1409c46203ad34018435242b2
:1030980063469340184370479140031c90409c46f8
:1030a800203a9340194352426346d340194370472c
:1030b80010b5002903d1fff7ebfd203002e0081c12
:0830c800fff7e6fd10bdc04654
:020000040000fa
:1030d0000eb403b503aa02ca019200f023f802b0ad
:0630e00008bc03b0184714
:020000040000fa
:1030e600002803d0bff35f8f62b6704772b6bff396
:0430f6005f8ffae707
:020000040000fa
:1030fc00034b00229a601a6801210a431a60704738
:04310c0010e000e0ef
:020000040000fa
:1031100010b58223db0504229a61fef7d9fdfff783
:04312000d1fe10bd0f
:020000040000fa
:1031240010b513000a000249fff702fc10bdc046a7
:04313400ffffff7f1b
:020000040000fa
:10313800eff3108072b6bff35f8f43425841c0b2bd
:023148007047ce
:020000040000fa
:10314a0010b58222d20594231021d150fff763ffd4
:02315a0010bda6
:020000040000fa
:10315c00002310b59a4200d110bdcc5cc45401338d
:02316c00f8e782
:020000040000fa
:10317000024a136801218b431360704710e000e09e
:020000040000fa
:10318000024a1368013313607047c0464c020020a6
:020000040000fa
:10319000024b186800221a607047c0464c0200209b
:020000040000fa
:1031a00003001218934200d1704719700133f9e7f8
:020000040000fa
:1031b00003001a78002a01d1181a70470133f8e782
:020000040000fa
:0e31c0000300413b192b01d820231843704710
:020000040000fa
:0e31ce000300613b192b01d85f2318407047a6
:020000040000fa
:0c31dc00014b84225a6070470040004103
:020000040000fa
:0c31e80010b500230022fef7a5f810bd72
:020000040000fa
:0c31f4000138014b5860704710e000e00b
:020000040000fa
:0c320000014b05221a60704710e000e04e
:020000040000fa
:0c320c00014b186059607047240200203c
:020000040000fa
:0c321800014b1860596070473002002024
:020000040000fa
:0c322400014b1860596070473802002010
:020000040000fa
:0832300000487047006cdc024d
:020000040000fa
:0832380004300000ff0000005b
:020000040000fa
:0832400010b5fff74dfc10bdb5
:020000040000fa
:0832480010b5fff707fd10bdf2
:020000040000fa
:07325000286e756c6c29006b
:020000040000fa
:0432580081617047d9
:020000040000fa
:04325c004161704715
:020000040000fa
:043260000020704793
:020000040000fa
:043264007047c046a9
:020000040000fa
:0200000400807a
:04400000770800003d
:020000040000fa
:0200000400807a
:044004000000ffffba
:00000001FF
