:108000000C9457400C94762D0C94782D0C94662D7E
:108010000C94682D0C943A460C9469460C947E4658
:10802000189500000C943C2E0C943E2E0C94442E7B
:108030000C94462E0C94502E0C944C2E0C944E2ED8
:108040000C945A2E0C94562E0C94582E0C94602E90
:108050000C94622E0C946C2D0C946E2D0C94702D3F
:108060000C94C0460C94EE2D0C94BA2D0C94F02D6B
:108070000C94BC2D0C94082E0C94E22D0C94E42D41
:108080000C94E62D0C94E82D0C94EA2D0C94EC2D18
:10809000189500001895000018950000189500002C
:1080A000189500000C94D146048804E58000F0E0A7
:1080B000E0E0D0E0C0E0B0E0A0E090E080E070E080
:1080C00060E050E040E030E020E010E000E0FE2E14
:1080D000EE2EDE2ECE2EBE2EAE2E9E2E8E2E7E2E80
:1080E0006E2E5E2E4E2E3E2E2E2E1E2E0E2E112467
:1080F0001FBECFEFD5E0DEBFCDBFE8EAF0E840E835
:1081000017C0B591A59135912591059107FD0CC03A
:1081100095918591EF01F92FE82F05900D92A21707
:10812000B307D9F7FE0104C01D92A217B307E1F708
:10813000ED3AF40731F70E9467450C94F547F8943F
:02814000FFCF6F
:1081420087B1806887B986B1806886B91CBC81B165
:10815200816081B987B58D7F87BD0E94424487B116
:108162008F7787B922E040E06CE080E00E946347AD
:1081720080E78093820082E08093830080E884BB62
:1081820081E190E090939D0480939C0480919C04F3
:1081920090919D044197D1F381E08093A00480E9FE
:1081A2000E94AA4481111092A0040E944F4410928E
:1081B2008F04ECE9F4E084E490E09183808381E031
:1081C20090E0938382830895CF93DF9380918F040D
:1081D200811128C021EE34E042EE54E063EE74E0F7
:1081E20084EE94E00E9491478091E40483FF56C09C
:1081F20081E080938F0480E8809382008CE08093FA
:10820200830084B3806284BB84B3806884BBECE95E
:10821200F4E081E190E09183808381E090E09383B8
:1082220082835BC08130D1F589E980938F0480E03D
:1082320007C0E82FF0E0E057FB4F9FEF90838F5F7E
:108242008630B8F3C0E9D4E08EEF8E8389E18F8364
:108252001886198663E087E994E00E9459458A8767
:108262006BE0CE010E949D4780EC809382001092C9
:10827200830084B3806284BB84B3806884BB60E47F
:1082820081E20E94A147ECE9F4E081E190E0918370
:10829200808381E090E0938382831FC0459B04C06A
:1082A200449B02C0439917C080E68093820088E114
:1082B2008093830084B3806284BB84B3806884BB70
:1082C200ECE9F4E081E190E09183808381E090E049
:1082D2009383828302C00E948547DF91CF910895E4
:1082E2000F931F93CF93DF9300D0CDB7DEB780916A
:1082F200A004811104C010929F0410929E048091E8
:108302009E0490919F04019709F053C042E0BE0180
:108312006F5F7F4F80E90E9404458981EDE8F4E0B8
:1083220081838A81808380918D0490918E04992328
:1083320014F481589F4F880F892F881F990B9C0135
:10834200220F331F220F331F820F931F90938E042D
:1083520080938D0480E007C0E82FF0E0E057FB4FE8
:108362009FEF90838F5F8630B8F300E914E08EEFC1
:10837200D80116968C93169784E617968C931797C6
:10838200EDE8F4E0808118968C9318978181199614
:108392008C9363E087E994E00E945945F801828753
:1083A20022C0E82FF0E0E057FB4F9FEF90838F5FF2
:1083B20001C080E08630A8F300E914E08EEFD80116
:1083C20016968C93169784E117968C9317971896A6
:1083D2001C92189719961C9263E087E994E00E9418
:1083E2005945F80182876BE080E994E00E949D473D
:1083F20087B1806887B98DE48093820081E08093A1
:10840200830084B3806284BB84B3806884BB60E4ED
:1084120081E20E94A147ECE9F4E081E190E09183DE
:10842200808381E090E0938382830F900F90DF91AD
:10843200CF911F910F910895CF93DF930E948947A7
:10844200882309F462C0682F80E994E00E9499476A
:1084520080919004803609F058C00E948D47C82F41
:108462008823F1F0682F80E994E00E94954720E08C
:1084720030E080E00BC0EC2FF0E03197E81BF1090F
:10848200E057FB4F9081290F311D8F5F833098F3A6
:10849200ABEABAEA0E94E647AC015695479502C09C
:1084A20040E050E090E007C0E92FF0E0E057FB4FDA
:1084B2002FEF20839F5F9630B8F3C0E9D4E08EEFB0
:1084C2008E8380E68F831886498763E087E994E08C
:1084D2000E9459458A8781E78093820082E08093D7
:1084E200830084B3806284BB84B3806884BB60E40D
:1084F20081E20E94A147ECE9F4E082E190E09183FD
:10850200808381E090E093838283DF91CF9108950D
:108512002F923F920F931F93CF93DF93C0ECD4E03F
:1085220009951124DF91CF911F910F913F902F90C8
:1085320008952F923F920F931F93CF93DF93C0EC36
:10854200D4E00995802F1124DF91CF911F910F91D3
:108552003F902F9008952F923F920F931F93CF93A6
:10856200DF93C0ECD4E00995802F912F1124DF9185
:10857200CF911F910F913F902F9008952F923F928C
:108582000F931F93CF93DF93C0ECD4E0082F09958C
:108592001124DF91CF911F910F913F902F90089559
:1085A2002F923F920F931F93CF93DF93C0ECD4E0AF
:1085B200082F162F09951124DF91CF911F910F914A
:1085C2003F902F9008952F923F920F931F93CF9336
:1085D200DF93C0ECD4E0082F162F242F0995802FAB
:1085E2001124DF91CF911F910F913F902F90089509
:1085F2002F923F920F931F93CF93DF93C0ECD4E05F
:10860200082F192F0995802F1124DF91CF911F91E7
:108612000F913F902F9008952F923F920F931F93A7
:10862200CF93DF93C0ECD4E0082F192F262F372FDA
:1086320009951124DF91CF911F910F913F902F90B7
:1086420008952F923F920F931F93CF93DF93C0EC25
:10865200D4E0082F192F09951124DF91CF911F9192
:108662000F913F902F9008952F923F920F931F9357
:10867200CF93DF93C0ECD4E0082F192F262F372F8A
:1086820009951124DF91CF911F910F913F902F9067
:1086920008952F923F920F931F93CF93DF93C0ECD5
:1086A200D4E0082F192F262F372F0995802F112458
:1086B200DF91CF911F910F913F902F9008952F92AC
:1086C2003F920F931F93CF93DF93C0ECD4E0082F18
:1086D200192F262F372F09951124DF91CF911F9142
:1086E2000F913F902F9008952F923F920F931F93D7
:1086F200CF93DF93C0ECD4E0062F622F202F072FF9
:10870200732F302F082F192F09951124DF91CF9144
:108712001F910F913F902F9008952F923F920F93A8
:108722001F93CF93DF93C0ECD4E0082F192F262F8D
:1087320009951124DF91CF911F910F913F902F90B6
:1087420008952F923F920F931F93CF93DF93C0EC24
:10875200D4E0082F192F262F372F09951124DF91E6
:10876200CF911F910F913F902F9008952F923F929A
:108772000F931F93CF93DF93C0ECD4E0082F162FF3
:108782000995802F912F1124DF91CF911F910F9185
:108792003F902F9008952F923F920F931F93CF9364
:1087A200DF93C0ECD4E0082F162F0995802F912F6C
:1087B2001124DF91CF911F910F913F902F90089537
:1087C2002F923F920F931F93CF93DF93C0ECD4E08D
:1087D200082F192F262F372F0995802F912F622FBF
:1087E200732F1124DF91CF911F910F913F902F9002
:1087F20008952F923F920F931F93CF93DF93C0EC74
:10880200D4E0082F192F262F372F0995802F912F6B
:10881200622F732F1124DF91CF911F910F913F90FF
:108822002F9008952F923F920F931F93CF93DF9330
:10883200C0ECD4E0082F192F262F372F0995802F4F
:10884200912F622F732F1124DF91CF911F910F91DE
:108852003F902F9008952F923F920F931F93CF93A3
:10886200DF93C0ECD4E0082F192F262F0995802F13
:10887200912F1124DF91CF911F910F913F902F9053
:02888200089557
:1088840086B18F7D86B986B18E7F86B987B18F7D9B
:1088940087B987B18E7F87B9089586B1816086B91B
:1088A40086B1806286B90E94D84786B18E7F86B928
:1088B4000E94D84786B18F7D86B90E94D847089513
:1088C4001F93CF93DF93182FD0E8C0E086B1816067
:1088D40086B90E94E3478D2F812321F086B18F7DD5
:1088E40086B903C086B1806286B9D6950E94D847FE
:1088F40086B18E7F86B90E94D847CF5FC83030F3E7
:1089040086B1816086B986B18F7D86B90E94D847C9
:1089140086B18E7F86B9C0E0D0E00E94E3472899F3
:1089240005C02196C83E8DEFD807B8F30E94E347EF
:108934002D9B02C011E001C010E00E94D847C83E40
:10894400DD4F09F411E0812FDF91CF911F9108953C
:10895400CF93C82F86B1806286B90E94D8478C2FE6
:108964000E946244CF910895AF92BF920F931F93D8
:10897400CF93DF93A82E00E810E0B12C86B181607C
:1089840086B986B18F7D86B90E94D84786B18E7F1D
:1089940086B90E94D847C0E0D0E00E94E3472899F6
:1089A40005C02196C83E8DEFD807B8F32D99B02A9B
:1089B40006951F5F183010F386B1816086B9AA202E
:1089C40021F086B1806286B903C086B18F7D86B9F5
:1089D4000E94D84786B18E7F86B9C0E0D0E00E945D
:1089E400E347289905C02196C83E8DEFD807B8F310
:1089F4000E94D8478B2DDF91CF911F910F91BF908B
:108A0400AF900895AF92BF920F931F93CF93DF93CC
:108A1400EB01042F81600E94AA44882371F00E9414
:108A24004F4481E01CC05E01A10EB11C81E00E9494
:108A3400B644F50180831F5F01C010E0212F30E0B0
:108A4400802F90E00197281739076CF3C10FD11DCF
:108A540080E00E94B64488830E944F4480E0DF9106
:108A6400CF911F910F91BF90AF9008950F931F93D3
:108A7400CF93DF938B01D42F0E94AA44882361F003
:108A84000E944F4481E00EC0F801EC0FF11D80817B
:108A94000E946244CF5F01C0C0E0CD17A8F30E94DA
:108AA4004F4480E0DF91CF911F910F910895AC0165
:108AB40080E090E006C0FA01E90FF11D3081830FD8
:0A8AC4009F5F9617C0F38195089597
:108ACE00CF93DF9300D0CDB7DEB781E08EB982E0D1
:108ADE008EB90E94B5470E94A94788E00E94A5471B
:108AEE00EFEFFFE48491813219F08FEF0E94C547BA
:108AFE0040E050E066E279E08FE099E00E94B147F5
:108B0E00882319F080E00E94C54721EE34E042EE42
:108B1E0054E063EE74E084EE94E00E9491478091FD
:108B2E00E2048C71E9F00E94A1400E94EB460E9483
:108B3E00134780E90E94AA440E944F4400E010E0CF
:108B4E0004C00E94E3470F5F1F4F02331105C8F3A5
:108B5E0042E0BE016F5F7F4F80E90E94044506C070
:108B6E0082E290E090939D0480939C04A89580915E
:108B7E009C0490919D048232910599F038F48131D4
:108B8E00910581F1429709F459C066C08838910564
:108B9E0071F08A3A910519F18434910509F05CC09F
:108BAE0003C00E94E54058C00E94714155C021EE9D
:108BBE0034E042EE54E063EE74E084EE94E00E9402
:108BCE0091478091E30484FF47C014BA10920E00BF
:108BDE008AEA90E090939D0480939C043DC00E948D
:108BEE001D423AC021EE34E042EE54E063EE74E0F2
:108BFE0084EE94E00E9491478091E30484FF2CC0A0
:108C0E0014BA10920E0088E890E090939D04809321
:108C1E009C048DE48093820081E08093830084B372
:108C2E00806284BB84B3806884BB60E482E20E946D
:108C3E00A14712C00E94E3471F5F01C010E0183C1D
:108C4E00C8F36BE080E994E00E949D4783E190E0D9
:108C5E0090939D0480939C040E94BD470E94C1473F
:068C6E000E94AD4783CF18
:108C74001F920F920FB60F9211242F933F934F938D
:108C84005F936F937F938F939F93AF93BF93EF9370
:108C9400FF938AB58F7E8ABD80910F008860809390
:108CA4000F008091100283FD0E94C947FF91EF914C
:108CB400BF91AF919F918F917F916F915F914F91F0
:108CC4003F912F910F900FBE0F901F9018951F92F8
:108CD4000F920FB60F9211248F93EF93FF93EBEC47
:108CE400F0E080818E7F8083FF91EF918F910F90D0
:108CF4000FBE0F901F9018951F920F920FB60F92F0
:108D040011242F933F934F935F936F937F938F938C
:108D14009F93AF93BF93EF93FF93EBECF0E08081CD
:108D24008D7F808380910F00806180930F008091FC
:108D34003B00826080933B008091100284FD0E947E
:108D4400C9478091E0028370813039F4E0E0F3E0B8
:108D540082E1808311820E94B947FF91EF91BF9114
:108D6400AF919F918F917F916F915F914F913F91BF
:108D74002F910F900FBE0F901F9018951F920F9276
:108D84000FB60F9211248F9380913B0081618093E1
:108D94003B008F910F900FBE0F901F9018951F925C
:108DA4000F920FB60F9211248F93EF93FF9380913C
:108DB4003B00806180933B00EFEDF2E080858062B0
:108DC4008087FF91EF918F910F900FBE0F901F90AE
:028DD4001895F0
:108DD600CF93DF93CBE8D4E0188280E8898342E022
:108DE600BE018EED0E94384587E0888380E1898345
:108DF60042E0BE018EED0E9438458DE088831982DF
:108E060042E0BE018EED0E9438458AE088831982D1
:108E160042E0BE018EED0E943845DF91CF91089564
:108E260010928B0441E06BE874E08EED0E943845A9
:108E360041E069E874E08EED0E9404458091890462
:108E46008F778055809388048A3518F080568093F2
:108E56008804EBE8F4E010828091880480688183BE
:0C8E660042E0BF018EED0E9438450895E7
:108E72008091CC02882324F182B1877F82B9ECEC05
:108E8200F2E08081806880838FEF809383008093FB
:108E9200820083E0809386001092870080E884BB82
:108EA20088B3876088BB81ED97E4928381831482C3
:108EB20013821682158282E08093880080E00895F2
:108EC20081E008959091CC029923E4F092B1977FCA
:108ED20092B9ECECF2E09081906890836093860006
:108EE2004093870084BB88B3876088BB81ED97E499
:108EF20092838183148213821682158220938800C2
:088F020080E0089581E008956C
:108F0A00E8E7F1E00C948942E0E0FDE20C949A4231
:108F1A00E4E0FDE20C949A42E6E0FDE20C9475432B
:108F2A00E8E0FDE20C948E43EAE0FDE20C948E4305
:108F3A00E4E1FDE20C948E43E8E1FDE20C94D142B7
:108F4A00EAE7FDE20C94BF42ECE7FDE20C948942A9
:108F5A00E0E8FDE20C948942E0EAFDE20C944A431F
:108F6A00E4EAFDE20C948942E8EBFDE20C948942C2
:108F7A00EAE0FEE20C948942EEE0FEE20C948942B9
:108F8A00E0E2FEE20C94BF42E6E3FEE20C94894280
:088F9A00E4E5FEE20C948942BB
:108FA200F2E2F0939C04FF27F0933400189500C07E
:108FB20000C000C000C000C000C000C000C000C0AF
:0A8FC20000C000C000C000000895C8
:108FCC00A29FB001B39FC001A39F700D811D1124FE
:0E8FDC00911DB29F700D811D1124911D0895ED
:108FEA00EC010E94FF670E94FE67CE010E940048C2
:068FFA00CE010E94FC679D
:029000000895D1
:03CFF0000220001C
:04CFF4000C94004059
:04CFF8000E949F40B4
:02CFFC00089596
:02CFFE00089594
:040000030000800079
:00000001FF
